:020000040800F2
:10000000000003203D0C0008810C0008810C000852
:10001000810C0008810C0008810C00080000000021
:10002000000000000000000000000000B9390008D6
:10003000810C0008000000007D3A0008D53A000855
:10004000810C0008810C0008810C0008810C00085C
:10005000810C0008810C0008810C0008810C00084C
:10006000810C0008810C0008810C0008810C00083C
:10007000810C0008810C0008810C0008810C00082C
:10008000810C0008810C0008810C0008810C00081C
:10009000810C0008810C0008810C0008810C00080C
:1000A000810C0008810C0008810C0008810C0008FC
:1000B000810C0008810C0008810C0008810C0008EC
:1000C000E5CF0008810C0008810C0008810C0008B5
:1000D000810C00082DCE0008810C0008810C00085E
:1000E000810C0008810C0008810C0008810C0008BC
:1000F000810C0008810C0008810C0008810C0008AC
:10010000810C0008810C0008810C0008810C00089B
:10011000810C0008810C0008810C0008810C00088B
:10012000810C0008810C0008810C0008810C00087B
:10013000810C0008810C0008810C0008810C00086B
:10014000810C0008810C0008810C0008810C00085B
:10015000810C0008810C0008810C0008810C00084B
:10016000810C0008810C0008810C0008810C00083B
:10017000810C0008810C0008810C0008810C00082B
:10018000810C0008810C0008810C0008810C00081B
:10019000810C0008810C0008810C0008810C00080B
:0C01A000810C0008810C0008810C000894
:1001B000B01201080000002064000020640000204C
:1001C000B42F0120844641EA000313F003036DD1EC
:1001D000403A41D351F8043B40F8043B51F8043B0A
:1001E00040F8043B51F8043B40F8043B51F8043B11
:1001F00040F8043B51F8043B40F8043B51F8043B01
:1002000040F8043B51F8043B40F8043B51F8043BF0
:1002100040F8043B51F8043B40F8043B51F8043BE0
:1002200040F8043B51F8043B40F8043B51F8043BD0
:1002300040F8043B51F8043B40F8043B51F8043BC0
:1002400040F8043B51F8043B40F8043B51F8043BB0
:1002500040F8043B403ABDD2303211D351F8043B50
:1002600040F8043B51F8043B40F8043B51F8043B90
:1002700040F8043B51F8043B40F8043B103AEDD2FF
:100280000C3205D351F8043B40F8043B043AF9D250
:10029000043208D0D2071CBF11F8013B00F8013B23
:1002A00001D30B8803806046704700BF082A13D330
:1002B0008B078DD010F003038AD0C3F10403D21A48
:1002C000DB071CBF11F8013B00F8013B80D331F87C
:1002D000023B20F8023B7BE7043AD9D3013A11F8FC
:1002E000013B00F8013BF9D20B7803704B78437067
:1002F0008B7883706046704781F0004102E000BF58
:1003000083F0004330B54FEA41044FEA430594EAD5
:10031000050F08BF90EA020F1FBF54EA000C55EA10
:10032000020C7FEA645C7FEA655C00F0E2804FEAE1
:100330005454D4EB5555B8BF6D420CDD2C4480EAC3
:10034000020281EA030382EA000083EA010180EAF3
:10035000020281EA0303362D88BF30BD11F0004F41
:100360004FEA01314FF4801C4CEA113102D0404277
:1003700061EB410113F0004F4FEA03334CEA1333B2
:1003800002D0524263EB430394EA050F00F0A780CA
:10039000A4F10104D5F1200E0DDB02FA0EFC22FAC5
:1003A00005F2801841F1000103FA0EF2801843FAB9
:1003B00005F359410EE0A5F120050EF1200E012AAA
:1003C00003FA0EFC28BF4CF0020C43FA05F3C018E8
:1003D00051EBE37101F0004507D54FF0000EDCF161
:1003E000000C7EEB00006EEB0101B1F5801F1BD30A
:1003F000B1F5001F0CD349085FEA30004FEA3C0C0E
:1004000004F101044FEA445212F5800F80F09A8003
:10041000BCF1004F08BF5FEA500C50F1000041EB07
:10042000045141EA050130BD5FEA4C0C404141EB0B
:10043000010111F4801FA4F10104E9D191F0000F32
:1004400004BF01460020B1FA81F308BF2033A3F1B5
:100450000B03B3F120020CDA0C3208DD02F1140CAC
:10046000C2F10C0201FA0CF021FA02F10CE002F1E7
:100470001402D8BFC2F1200C01FA02F120FA0CFCE0
:10048000DCBF41EA0C019040E41AA2BF01EB045129
:10049000294330BD6FEA04041F3C1CDA0C340EDC27
:1004A00004F11404C4F1200220FA04F001FA02F36A
:1004B00040EA030021FA04F345EA030130BDC4F128
:1004C0000C04C4F1200220FA02F001FA04F340EA1D
:1004D0000300294630BD21FA04F0294630BD94F0CE
:1004E000000F83F4801306BF81F480110134013DB5
:1004F0004EE77FEA645C18BF7FEA655C29D094EA26
:10050000050F08BF90EA020F05D054EA000C04BFA3
:100510001946104630BD91EA030F1EBF002100208E
:1005200030BD5FEA545C05D14000494128BF41F02D
:10053000004130BD14F580043CBF01F5801130BD91
:1005400001F0004545F0FE4141F470014FF000001C
:1005500030BD7FEA645C1ABF194610467FEA655CCD
:100560001CBF0B46024650EA013406BF52EA03356F
:1005700091EA030F41F4002130BD00BF90F0000F5D
:1005800004BF0021704730B54FF4806404F1320499
:100590004FF000054FF0000150E700BF90F0000F52
:1005A00004BF0021704730B54FF4806404F1320479
:1005B00010F0004548BF40424FF000013EE700BF49
:1005C00042004FEAE2014FEA31014FEA02701FBFD9
:1005D00012F07F4393F07F4F81F06051704792F0AB
:1005E000000F14BF93F07F4F704730B54FF4607425
:1005F00001F0004521F0004120E700BF50EA010270
:1006000008BF704730B54FF000050AE050EA01021C
:1006100008BF704730B511F0004502D5404261EB8C
:1006200041014FF4806404F132045FEA915C3FF4CD
:10063000DCAE4FF003025FEADC0C18BF03325FEA66
:10064000DC0C18BF033202EBDC02C2F1200300FA1B
:1006500003FC20FA02F001FA03FE40EA0E0021FA40
:1006600002F11444C1E600BF70B54FF0FF0C4CF42A
:10067000E06C1CEA11541DBF1CEA135594EA0C0FE0
:1006800095EA0C0F00F0DEF82C4481EA030621EA1B
:100690004C5123EA4C5350EA013518BF52EA033556
:1006A00041F4801143F4801338D0A0FB02CE4FF008
:1006B0000005E1FB02E506F00042E0FB03E54FF038
:1006C0000006E1FB03569CF0000F18BF4EF0010E30
:1006D000A4F1FF04B6F5007F64F5407404D25FEA2C
:1006E0004E0E6D4146EB060642EAC62141EA5551DF
:1006F0004FEAC52040EA5E504FEACE2EB4F1FD0C21
:1007000088BFBCF5E06F1ED8BEF1004F08BF5FEA9E
:10071000500E50F1000041EB045170BD06F0004650
:1007200046EA010140EA020081EA0301B4EB5C04FD
:10073000C2BFD4EB0C0541EA045170BD41F48011F5
:100740004FF0000E013C00F3AB8014F1360FDEBF1A
:10075000002001F0004170BDC4F10004203C35DAF6
:100760000C341BDC04F11404C4F1200500FA05F379
:1007700020FA04F001FA05F240EA020001F000421A
:1007800021F0004110EBD37021FA04F642EB060190
:100790005EEA430E08BF20EAD37070BDC4F10C04BA
:1007A000C4F1200500FA04F320FA05F001FA04F27E
:1007B00040EA020001F0004110EBD37041F100016A
:1007C0005EEA430E08BF20EAD37070BDC4F1200575
:1007D00000FA05F24EEA020E20FA04F301FA05F2DD
:1007E00043EA020321FA04F001F0004121FA04F285
:1007F00020EA020000EBD3705EEA430E08BF20EA55
:10080000D37070BD94F0000F0FD101F0004640008E
:1008100041EB010111F4801F08BF013CF7D041EA10
:10082000060195F0000F18BF704703F00046520014
:1008300043EB030313F4801F08BF013DF7D043EAE5
:100840000603704794EA0C0F0CEA135518BF95EA9B
:100850000C0F0CD050EA410618BF52EA4306D1D122
:1008600081EA030101F000414FF0000070BD50EA41
:10087000410606BF1046194652EA430619D094EACB
:100880000C0F02D150EA013613D195EA0C0F05D1B5
:1008900052EA03361CBF104619460AD181EA030109
:1008A00001F0004141F0FE4141F470014FF00000C1
:1008B00070BD41F0FE4141F4780170BD70B54FF05C
:1008C000FF0C4CF4E06C1CEA11541DBF1CEA1355DC
:1008D00094EA0C0F95EA0C0F00F0A7F8A4EB0504BE
:1008E00081EA030E52EA03354FEA013100F08880B5
:1008F0004FEA03334FF0805545EA131343EA12637E
:100900004FEA022245EA111545EA10654FEA002632
:100910000EF000419D4208BF964244F1FD0404F5EB
:10092000407402D25B084FEA3202B61A65EB030547
:100930005B084FEA32024FF480104FF4002CB6EB04
:10094000020E75EB030E22BFB61A754640EA0C0084
:100950005B084FEA3202B6EB020E75EB030E22BFC4
:10096000B61A754640EA5C005B084FEA3202B6EB05
:10097000020E75EB030E22BFB61A754640EA9C00C4
:100980005B084FEA3202B6EB020E75EB030E22BF94
:10099000B61A754640EADC0055EA060E18D04FEA52
:1009A000051545EA16754FEA06164FEAC30343EAF2
:1009B00052734FEAC2025FEA1C1CC0D111F4801FBF
:1009C0000BD141EA00014FF000004FF0004CB6E7B8
:1009D00011F4801F04BF01430020B4F1FD0C88BF57
:1009E000BCF5E06F3FF6AFAEB5EB030C04BFB6EB62
:1009F000020C5FEA500C50F1000041EB045170BD55
:100A00000EF0004E4EEA113114EB5C04C2BFD4EB81
:100A10000C0541EA045170BD41F480114FF0000E05
:100A2000013C90E645EA060E8DE60CEA135594EA81
:100A30000C0F08BF95EA0C0F3FF43BAF94EA0C0F84
:100A40000AD150EA01347FF434AF95EA0C0F7FF4F9
:100A500025AF104619462CE795EA0C0F06D152EA4D
:100A600003353FF4FDAE1046194622E750EA410631
:100A700018BF52EA43067FF4C5AE50EA41047FF442
:100A80000DAF52EA43057FF4EBAE12E74FF0FF3CA7
:100A900006E000BF4FF0010C02E000BF4FF0010C78
:100AA0004DF804CD4FEA410C7FEA6C5C4FEA430CF1
:100AB00018BF7FEA6C5C1BD001B050EA410C0CBF40
:100AC00052EA430C91EA030F02BF90EA020F0020A2
:100AD000704710F1000F91EA030F58BF994208BF09
:100AE00090422CBFD8176FEAE37040F001007047C6
:100AF0004FEA410C7FEA6C5C02D150EA013C07D11D
:100B00004FEA430C7FEA6C5CD6D152EA033CD3D067
:100B10005DF8040B704700BF8446104662468C4661
:100B20001946634600E000BF01B5FFF7B7FF002894
:100B300048BF10F1000F01BD4DF808EDFFF7F4FFBD
:100B40000CBF012000205DF808FB00BF4DF808ED48
:100B5000FFF7EAFF34BF012000205DF808FB00BF6B
:100B60004DF808EDFFF7E0FF94BF012000205DF88D
:100B700008FB00BF4DF808EDFFF7CEFF94BF012042
:100B800000205DF808FB00BF4DF808EDFFF7C4FF3B
:100B900034BF012000205DF808FB00BF4FEA41028E
:100BA000B2F1E04324BFB3F5001CDCF1FE5C0DD9CB
:100BB00001F0004C4FEAC0024CEA5070B2F1004F15
:100BC00040EB830008BF20F00100704711F0804F18
:100BD00021D113F13872BCBF01F00040704741F4DD
:100BE00080114FEA5252C2F11802C2F1200C10FAE1
:100BF0000CF320FA02F018BF40F001004FEAC123C5
:100C00004FEAD32303FA0CFC40EA0C0023FA02F368
:100C10004FEA4303CCE77FEA625307D150EA01333E
:100C20001EBF4FF0FE4040F44000704701F000400E
:100C300040F0FE4040F40000704700BF002103E098
:100C40000A4B5B584350043109480A4B42189A42F8
:100C5000F6D3094A02E0002342F8043B074B9A42CC
:100C6000F9D300F023F800F00DF87047B012010836
:100C7000000000206400002064000020B42F012048
:100C8000FEE7000008B50BF0EFFF0BF053FE0CF091
:100C9000F9FF0CF0DFFF10B903480CF047F801F042
:100CA00029FD002008BD00BF00E70008394A3A4B83
:100CB000D2F88810394841F47001C2F888101968D8
:100CC000002241F0010119609A60196821F08471D5
:100CD00021F4803119605860196882B021F48021B4
:100CE0001960DA60009201921A6842F480321A6048
:100CF0001A4603E0009BB3F5A04F09D0136803F434
:100D000000330193009B01330093019B002BF1D032
:100D1000214B1B6813F4003318BF01230193019B7F
:100D2000012B05D01B4B4FF000629A6002B0704758
:100D3000194B1B4A186C1B4940F08050186410680E
:100D400040F4404010609A689A609A6842F4004209
:100D50009A609A6842F4A0529A6059601A6842F008
:100D600080721A6019460B680B4A9B01FBD50E4B2B
:100D700040F204611960936823F003039360936861
:100D800043F002039360936803F00C03082BFAD13D
:100D9000C8E700BF00ED00E000380240103000243A
:100DA00000700040194B4007003C0240164B9A6807
:100DB00002F00C02042A24D0082A0AD0134A124B4B
:100DC00013489968134BC1F30311415CCA401A6080
:100DD0007047586859685B6842024CBF0E4A0B4A1C
:100DE00001F03F01C3F38813B2FBF1F202FB03F2FF
:100DF000054B5B68C3F3014301335B00B2FBF3F2C5
:100E0000DDE7054ADBE700BF003802400024F400BC
:100E1000000000201000002000127A002DE9F843A5
:100E2000074638200E46904602F0F6FE044600289B
:100E300043D0244B1A683AB325460023012E28BF1D
:100E40000126A386E662C4F8308045F8047B284674
:100E500000F004FB04F1180000F000FB1A4AE36AFA
:100E600011681A4824618B4288BF1360C6F10206DC
:100E700003EB830300EB8300A6616462294600F064
:100E8000F1FA0120BDE8F8831048DFF858901C60A3
:100E90000F4D00F0D7FA0F4800F0D4FA484600F0A2
:100EA000D1FA284600F0CEFA0B4800F0CBFA0B4AF4
:100EB0000B4BC2F800901D60BEE74FF0FF30BDE85D
:100EC000F88300BFA0000020EC000020C400002038
:100ED000A4000020D80000208C000020C0000020CA
:100EE000F000002074000020F8B50E4E0E4C35685E
:100EF00023680544181D0F4600F0DCFA32682168AB
:100F0000954234BF094A0A4A4D601068043100F026
:100F1000B7FA37B1216838461831BDE8F84000F01B
:100F2000AFBAF8BDB8000020A0000020F0000020FB
:100F3000C00000202DE9F84FDFF8A881624DD8F8F5
:100F40000030624EA94603B302F052FDD8F80C30CF
:100F5000DC6804F1180000F0ADFA271D002002F053
:100F600077FD384600F0A6FAE36A2A6803EB8300AF
:100F7000934206EB8000394688BFC9F8003000F084
:100F800071FAD8F80030002BDED101F063FC504933
:100F9000504F0B68DFF850B1DFF82C913A68C01A57
:100FA0004D4B18600346002B46D04B490132581E6A
:100FB0003A600860002A5BD0DBF80010DFF8288177
:100FC0000B68002B60D0CB68D3F80CA0DAF80410C3
:100FD0008A4208D258E0DB683A68D3F80CA0DAF805
:100FE0000410914252D80AF1040402F001FD204697
:100FF00000F060FADAF828200AF118000AB100F0CF
:1010000059FA002002F024FDDAF82C302A6803EBAC
:101010008300934206EB8000214688BFC9F8003068
:1010200000F020FAD8F800301A68002AD3D12A49F3
:101030003A680B68002BB8D12968254802608A00FD
:101040005418224856F8244034BB002937D04A1E91
:1010500002EB820450F82440DCB9002A31D08A1E09
:1010600002EB820350F823309BB92A60BDE8F88F69
:101070001A4CDBF80030216823600B68DFF86880C9
:10108000CBF80010002B9ED103468CE71248036872
:1010900089E711462A6092000A4406EB820606F1AF
:1010A000080273685B687360934208BF5B680C4A10
:1010B000D86808BF7360016B036810609847BDE88B
:1010C000F88F1A46D1E700BFEC000020C4000020D2
:1010D000BC000020B800002088000020F0000020A4
:1010E000A00000208C000020C000002038B5C3689C
:1010F000DC6804F11805284600F0DCF929460648AA
:1011000000F0B0F9054BE06A1B68DB6A984234BF17
:101110000020012038BD00BF8C000020A00000206E
:1011200010B51C2002F078FD044620B1002340F8E1
:10113000043B00F087F9204610BD00BF2DE9F843BD
:1011400011F07F4F0C46064617469846DDF8209072
:1011500016D111B902F04CFCFEE702F03BF910B9D0
:10116000B9F1000F0FD101F06DFB3568B8F1000F38
:101170000CD12C420ED087B125EA040434600CE077
:1011800002F036FCFEE702F033FCFEE704EA05035A
:101190009C42F0D0B9F1000F04D101F01DFC2846AB
:1011A000BDE8F883002F14BF4FF0A0614FF08061BD
:1011B00014BF4FF080730023B8F1000F08BF194629
:1011C0004A462143301D01F0AFFF01F005FC08B98C
:1011D00002F002FC02F06EF9830102D520F07F4597
:1011E000DDE702F027FC3568B8F1000F08D12C428A
:1011F00003D017B125EA0404346002F02DFCCEE7D9
:1012000004EA05039C42F8D1F3E700BF11F07F4FD9
:1012100070B50C46064602D002F0EAFBFEE702F08B
:1012200009FC356825EA0404346002F015FC284600
:1012300070BD00BF11F07F4F70B50E46054602D05D
:1012400002F0D6FBFEE702F0D3FB2C6824EA060688
:101250002E6002F0FDFB204670BD00BFF8B511F016
:101260007F450E46044602D002F0C2FBFEE701F0C5
:10127000E9FA21682069314304F10C0686422160B5
:101280000DD120E0194207D0D20100D51D4341F015
:10129000007102F00BF82168BE420DD0384690E88C
:1012A000840012F0806F22F07F43EBD001EA030E3E
:1012B0009E45E9D0BE42F1D1ED432940216001F0C5
:1012C0008BFB2068F8BD4FF0FF35F6E712F07F4F3B
:1012D000F8B5154604460E461F4619D112B902F05C
:1012E00087FBFEE702F076F8A8B9002F37D101F0AE
:1012F000A9FA2368314620461E43FFF7AFFF05EAEF
:101300000601A94227D0266801F066FB3046F8BDE9
:1013100002F06EFBFEE701F095FA236831462046A5
:101320001E43FFF79BFF05EA0601A94213D0002FD9
:10133000E9D03A46201D45F0A06101F0F5FE01F02C
:101340004BFB08B902F048FB02F0B4F8830109D561
:1013500020F07F46DAE723680B402360D4E702F0F1
:1013600047FBFEE702F066FB266805EA0603AB4290
:1013700004BF26EA0505256002F06EFBC6E700BF44
:1013800038B5044601F05EFA63687BB1206904F168
:101390000C05A84203D110E02069A8420DD04FF0FF
:1013A000007101F083FF6368002BF5D1204602F045
:1013B00061FCBDE8384001F00FBB02F019FBFEE70D
:1013C000F8B511F07F450E46044602D002F010FB3E
:1013D000FEE701F037FA21682069314304F10C0679
:1013E000864221600DD120E0194207D0D20100D5FC
:1013F0001D4341F0007101F059FF2168BE420DD03C
:10140000384690E8840012F0806F22F07F43EBD0E2
:1014100001EA030C6345E9D0BE42F1D1ED43294016
:101420002160BDE8F84001F0D7BA4FF0FF35294000
:101430002160BDE8F84001F0CFBA00BF00B180697B
:10144000704700BF00F108034FF0FF3100228160B8
:1014500080E80C00C3600361704700BF0023036194
:10146000704700BF436830B49A6805688A609C681A
:101470004B606A1C6160996030BC08610260704713
:1014800030B40D686B1C11D000F1080200E01A4660
:1014900053681C68A542FAD204684B600134996015
:1014A0008A6051600861046030BC7047026953680B
:1014B000F2E700BF42688168036910B491608168F7
:1014C0005C684A601A68844208BF5960013A00218A
:1014D00001615DF8044B1A601046704730B405682E
:1014E000034665B1026CC468406814448442DC6001
:1014F00028BFDD60084630BCD968FEF763BE30BC4B
:10150000704700BF38B5044602F094FAA36C002B74
:1015100014DD636A93B104F1240507E0A36C013B79
:10152000A364A36C002B09DD636A3BB1284601F07C
:101530007FFE0028F2D001F039FFEFE74FF0FF33D4
:10154000A36402F089FA02F075FA636C002B14DDD3
:10155000236993B104F1100507E0636C013B6364F8
:10156000636C002B09DD23693BB1284601F060FE66
:101570000028F2D001F01AFFEFE74FF0FF33636469
:10158000BDE8384002F068BA38B504460D4688B365
:1015900002F050FA206CE26B2368A36002FB00F2B9
:1015A000101A1844002113444FF0FF32A163E06089
:1015B00062646360A2648DB923691BB902F04CFABE
:1015C000012038BD04F1100001F032FE0128F5D1F0
:1015D00002F002FA02F040FA012038BD04F11000D6
:1015E000FFF730FF04F12400FFF72CFF02F034FA7C
:1015F000012038BD02F0FCF9FEE700BFF8B5054652
:101600000E461746002831D0542002F005FB044650
:1016100060B306FB05F0013002F0FEFA206010B363
:10162000E563266402F006FA206CE16B2368A36090
:1016300001FB00F1081A002218440B444FF0FF315F
:10164000A26363606164E060A16404F11000FFF7CD
:10165000F9FE04F12400FFF7F5FE02F0FDF984F82D
:1016600050702046F8BD204602F004FB02F0C0F99D
:10167000FEE700BFF8B505460E46002833D0884285
:1016800002D202F0B5F9FEE7542002F0C5FA044692
:1016900078B3012002F0C0FA206038B30027E56378
:1016A000276402F0C7F9216CE26B2368A36002FB98
:1016B00001F2511A581899184FF0FF32A763616070
:1016C0006264E060A26404F11000FFF7BBFE04F165
:1016D0002400FFF7B7FE02F0BFF9022384F8503070
:1016E000A6632046F8BD02F083F9FEE7204602F02B
:1016F000C1FA02F07DF9FEE72DE9F04385B004461A
:101700000E4601921D46002800F0F280002900F0EC
:101710002F81022D55D001F05DFE18B9019B002BE1
:1017200040F0238102F086F9A26BE36B4FF00008D2
:101730009A42474679D3022D00F0EC80DDF8049000
:10174000B9F1000F00F0E080B8F1000F00F0CC809C
:1017500002F082F901F076F802F06CF9636C013363
:1017600008BF6764A36C013308BFA76402F074F973
:1017700002A801A901F0E2FD002840F0BC8002F0BF
:1017800059F9A26BE36B9A4263D002F065F902F05B
:1017900051F9A36C002B1ADD636AC3B104F124086C
:1017A00007E0A36C013BA364A36C002B0FDD626A0E
:1017B0006AB1404601F03CFD0028F2D001F0F6FD90
:1017C000EFE7E36B012BA6D002F012F9FEE74FF032
:1017D000FF33A36402F040F902F02CF9636C002B94
:1017E00014DD236993B104F1100807E0636C013B39
:1017F0006364636C002B09DD22693AB1404601F055
:1018000017FD0028F2D001F0D1FDEFE74FF0FF33D4
:10181000636402F021F901F0DFF802F00BF9A26B2A
:10182000E36B9A424FF0010885D2226C002A73D0F4
:10183000002D40F082803146A068FEF7C3FCA1680D
:10184000236C62680B449342A3606BD32368A3604C
:1018500068E004F1100802F0FFF84046019901F039
:1018600021FC02F0E7F8A36C002B14DD636A93B14E
:1018700004F1240907E0A36C013BA364A36C002BD3
:1018800009DD626A3AB1484601F0D2FC0028F2D084
:1018900001F08CFDEFE74FF0FF33A36402F0DCF8BA
:1018A00002F0C8F8636C002B12DD236943B90FE026
:1018B000636C013B6364636C002B09DD22693AB100
:1018C000404601F0B5FC0028F2D001F06FFDEFE7D3
:1018D0004FF0FF33636402F0BFF801F07DF8002899
:1018E0009BD102F079F898E702A801F017FD2FE7E5
:1018F00002F07EF8FEE72046FFF704FE01F06CF8E8
:10190000002005B0BDE8F08302F0A6F8484605B017
:10191000BDE8F083226C82B925681DB9606801F0CA
:10192000A1FD6560A26B636A0132A2633BBB02F05A
:1019300093F8012005B0BDE8F0833146E068FEF77A
:1019400041FC236CE26821685B421A448A42E260EF
:1019500002D262681344E360022DE3D1A36B002B33
:10196000E0D0A36B013BA363DCE702F041F8FEE7A4
:10197000036C002B3FF4CDAE02F03AF8FEE704F121
:10198000240001F055FC0128D1D102F025F8CEE762
:1019900070B50646542002F03FF90446E8B1002530
:1019A0004FF0FF3301228563C263436480F85060C7
:1019B0008364456005608560C56005641030FFF78D
:1019C00041FD04F12400FFF73DFD204629462A464B
:1019D0002B46FFF791FE204670BD02F009F8FEE7A6
:1019E00038B5044630B1456801F0EEFC854204D0BC
:1019F000002038BD01F0FCFFFEE7E1680139E1603D
:101A000009B1012038BD20460A460B46FFF774FE97
:101A1000012038BD2DE9F04104460E4690461D4692
:101A200000282ED000297FD0022D0FD002F0D2F84E
:101A300001F0DEFFA26BE36B934207460CD8002453
:101A4000384602F005F82046BDE8F081E36B012B33
:101A500032D001F0CDFFFEE7226CAAB92568002D37
:101A60005DD0A36B0133A363A36C01331BD0A36CC4
:101A70000133A3643846012401F0EAFF2046BDE8A3
:101A8000F08101F0B5FFFEE7FDB93146A068FEF731
:101A900099FBA168236C62680B449342A360E0D376
:101AA0002368A360DDE7636A3BBB3846012401F08D
:101AB000CFFF2046BDE8F08102F08CF801F098FFDE
:101AC000A26B226C0746002AC8D03146E068FEF7B8
:101AD00079FB236CE26821685B421A448A42E26027
:101AE00002D262681344E360022DBAD1A36B002BCB
:101AF000B7D0A36B013BA363B3E704F1240001F06B
:101B000097FB0028D1D00124B8F1000F98D03846B7
:101B1000C8F8004001F09CFF2046BDE8F0816068F5
:101B200001F0A0FC65609CE7036C002B3FF47CAFE8
:101B300001F05EFFFEE700BF2DE9F04385B00446EB
:101B40000D4601921F46002800F0EB80002900F0AE
:101B5000198101F03FFC18B9019B002B40F00F8167
:101B600001F068FFA36B4FF000084646002B79D1C7
:101B7000DDF80490B9F1000F00F0E780B8F1000F34
:101B800000F0CB8001F068FF00F05CFE01F052FF36
:101B9000636C013308BF6664A36C013308BFA6649D
:101BA00001F05AFF02A801A901F0C8FB002840F08B
:101BB000C38001F03FFFA36B002B6BD101F04CFF02
:101BC0002368002B00F0B08004F1240840460199FE
:101BD00001F068FA01F02EFFA36C002B12DD636A9E
:101BE00043B90FE0A36C013BA364A36C002B09DD98
:101BF000626A3AB1404601F01BFB0028F2D001F0C6
:101C0000D5FBEFE74FF0FF33A36401F025FF01F0B0
:101C100011FF636C002B14DD236993B104F11008EC
:101C200007E0626C013A6264626C002A09DD226995
:101C30003AB1404601F0FCFA0028F2D001F0B6FBC0
:101C4000EFE74FF0FF33636401F006FF00F0C4FEDE
:101C500008B901F0C1FE01F0EDFEA36B4FF00108E1
:101C6000002B85D029462046E568FFF737FC002F7A
:101C700071D1A26B2368013AA26313B901F0A4FBEE
:101C800060602369002B73D101F0E6FE012005B0EE
:101C9000BDE8F08301F0E0FE01F0CCFEA36C002B68
:101CA00014DD636A93B104F1240807E0A36C013BDF
:101CB000A364A36C002B09DD636A3BB1404601F0CD
:101CC000B7FA0028F2D001F071FBEFE74FF0FF33D5
:101CD000A36401F0C1FE01F0ADFE636C002B14DDC6
:101CE000236993B104F1100807E0636C013B63645E
:101CF000636C002B09DD23693BB1404601F098FA83
:101D00000028F2D001F052FBEFE74FF0FF3363649D
:101D100001F0A2FE00F060FE9DE702A801F0FEFACD
:101D200030E701F065FEFEE701F084FE606801F037
:101D300061FB01F091FE47E72046FFF7E3FB00F06F
:101D40004BFE002005B0BDE8F08301F085FE48465B
:101D500005B0BDE8F083636AE560002B94D004F120
:101D6000240001F065FA00288ED001F035FE8BE7E3
:101D700004F1100001F05CFA012885D1F5E701F0CB
:101D800037FEFEE7036C002B3FF4E3AE01F030FEBC
:101D9000FEE700BF70B504460D46B0B1466801F0DD
:101DA00013FB86420CD000212A460B462046FFF743
:101DB000C3FE012800D070BDE3680133E36070BD4D
:101DC000E3680133E360012070BD01F011FEFEE71E
:101DD000F8B504460E46154668B111B301F0FAFE97
:101DE00001F006FEA36B074643B91C46384601F0D6
:101DF0002FFE2046F8BD01F0FBFDFEE731462046F0
:101E0000FFF76CFBA36B013BA363636C01330ED044
:101E1000636C013363643846012401F019FE2046E7
:101E2000F8BD036C002BD9D001F0E2FDFEE7236979
:101E3000002BF0D004F1100001F0FAF90028EAD0EC
:101E4000002DE8D0012438462C6001F001FE204628
:101E5000F8BD00BFF8B504460E4660B1D1B101F03F
:101E6000B9FE01F0C5FDA56B07463DB9384601F046
:101E7000EFFD2846F8BD01F0BBFDFEE731462046E8
:101E8000E6680125FFF72AFB3846E66001F0E0FD31
:101E90002846F8BD036C002BE1D001F0A9FDFEE758
:101EA00010B5044630B101F0C5FDA46B01F0D4FDBE
:101EB000204610BD01F09CFDFEE700BF10B50446B2
:101EC00040B101F0B7FDA36BE46BE41A01F0C4FD6F
:101ED000204610BD01F08CFDFEE700BF08B508B13B
:101EE000806B08BD01F084FDFEE700BF10B504461D
:101EF00068B3224B5A6890422CD0DA6890422ED0B8
:101F00005A69904230D0DA6990421BD05A6A9042A6
:101F100031D0DA6A90422CD05A6B90420DD0DA6BF5
:101F2000904208BF072209D0206808B101F0A2FE44
:101F30002046BDE8104001F09DBE0622002143F876
:101F40003210F1E70322002143F83210ECE701F0F0
:101F50004FFDFEE70022002143F83210E4E70122A2
:101F6000002143F83210DFE70222002143F832104B
:101F7000DAE70522E2E70422E0E700BFF4000020F0
:101F8000C06C7047C164704790F85000704700BF44
:101F900008B528B1806BD0F1010038BF002008BD22
:101FA00001F026FDFEE700BF08B528B1826BC06BCB
:101FB000131A5842584108BD01F01AFDFEE700BF50
:101FC000144B1A6810B48AB19A68BAB11A69BAB1D6
:101FD0009A69BAB11A6ABAB19A6ABAB11A6B22B1DD
:101FE0009A6BAAB15DF8044B7047062203EBC2045A
:101FF00043F8321060605DF8044B70470122F5E74A
:102000000222F3E70322F1E70422EFE70522EDE7DE
:102010000722EBE7F4000020164B5A6882421CD0DE
:10202000DA6882421BD05A6982421AD0DA69824247
:1020300019D05A6A824218D0DA6A824217D05A6B93
:10204000824205D0DA6B824208BF072201D0704776
:102050000622002143F8321070470022F9E70122DE
:10206000F7E70222F5E70322F3E70422F1E705226E
:10207000EFE700BFF400002038B504460D4601F03C
:10208000D9FC636C013304BF00236364A36C013388
:1020900004BF0023A36401F0DFFCA36B23B929462E
:1020A00004F1240001F08EF801F0C4FCA36C002BB5
:1020B00014DD636A93B104F1240507E0A36C013BCE
:1020C000A364A36C002B09DD636A3BB1284601F0D1
:1020D000AFF80028F2D001F069F9EFE74FF0FF33D5
:1020E000A36401F0B9FC01F0A5FC636C002B14DDC6
:1020F000236993B104F1100507E0636C013B63644D
:10210000636C002B09DD23693BB1284601F090F890
:102110000028F2D001F04AF9EFE74FF0FF33636493
:10212000BDE8384001F098BC38B50F4D002428199F
:102130001434FFF787F9642CF9D10C4D0C4C284668
:10214000FFF780F92046FFF77DF90A48FFF77AF993
:102150000948FFF777F90948FFF774F9084A094B6E
:1021600015601C6038BD00BF54010020E80100204C
:10217000FC010020C40100204001002014020020C6
:1021800034010020E00100202DE9F84F0AAE074697
:102190000D4691469A4696E84009002800F09B803B
:1021A000042E02D901F024FCFEE74C2001F034FD9E
:1021B0000446002800F0AB80BBF1000F00F09B80CC
:1021C000C0F830B058464FEA890B5A46A5210BF0AB
:1021D00045FF2A78236B84F8342009F1804909F1FE
:1021E000FF392A7803EB890323F0070B2AB36B78B6
:1021F00084F835306B7803B3AB7884F83630AB783D
:10220000DBB1EB7884F83730EB78B3B12B7984F815
:1022100038302B798BB16B7984F839306B7963B1B5
:10222000AB7984F83A30AB793BB1EB7984F83B3049
:10223000EB7913B12B7A84F83C30002304F10409C4
:1022400084F83D304846E662A664FFF707F904F1DA
:102250001800FFF703F9C6F10503246164625846CC
:1022600039465246A36101F091FB2060B8F1000F9E
:1022700001D0C8F8004001F0DDFB274B274D1A685C
:1022800001321A602A6872B3254F3B6823B92B6864
:10229000DB6A9E4228BF2C602248234A0168E36A19
:1022A000D2F800E0013173450160204888BF136017
:1022B00003EB830300EB830021644946FFF7D2F868
:1022C00001F0CAFB3B681BB12B68DB6A9E4205D854
:1022D0000120BDE8F88F01F08BFBFEE701F07CFBED
:1022E0000120BDE8F88F2C601B68012B01D1FFF79E
:1022F0001BFF0B4FD0E74FEA890B584601F08CFCCF
:10230000206300287FF461AF204601F0B3FC4FF05A
:10231000FF30BDE8F88F00BFBC010020C0010020E5
:1023200038010020E4010020280200205401002090
:1023300038B5044601F07EFB002C38D0251D284618
:10234000FFF7B8F8A36A1BB104F11800FFF7B2F861
:1023500029461848FFF786F8174B184A196810687D
:10236000013101301960106001F076FB144B1B68DD
:1023700093B1144B1B689C420FD0134B1A68126820
:1023800022B9124B4FF0FF321A6038BD1A680F4B5A
:10239000D268D26852681A6038BD0D4B1B6813B101
:1023A00001F026FBFEE7BDE8384001F015BB054B08
:1023B0001C68C3E740010020E40100203C0100202C
:1023C00038010020C001002034010020140000204A
:1023D000B801002010B5044601F02CFB24B1E46ADA
:1023E00001F03AFB204610BD034B1C68E46A01F083
:1023F00033FB204610BD00BFC00100200429F8B502
:102400000D4604462FD801F015FB002C2ED0A26CEF
:1024100095421FD0244B21D919688C4241D01B68AA
:10242000DE6AB54234BF00260126E36A1F4FA56469
:102430009A42A26908BFE56203EB8303002A62693E
:10244000A8BFC5F1050507EB8303A8BFA5619A42A4
:1024500015D076B9BDE8F84001F0FEBA1E68A31B9E
:102460005E425E41E1E701F0C3FAFEE70E4B1C68F5
:10247000CDE701F0B1FABDE8F84001F0EDBA251D55
:102480002846FFF717F80A4AE36A11688B4200D919
:10249000136003EB830007EB80002946FEF7E2FFA1
:1024A000D7E70026C1E700BFC0010020540100208B
:1024B00028020020F8B504463B4D01F0BBFA002C81
:1024C0002FD0261D3046FEF7F5FFA36A1BB104F19D
:1024D0001800FEF7EFFF354F31463846FEF7C2FFD2
:1024E00001F0BAFA2B68304A9C42314B1B6811D07C
:1024F00003B9F8BD2F4B1A68126822B92E4B4FF062
:10250000FF321A60F8BD1A682B4BD268D268526845
:102510001A60F8BD3BB1294B1B685BB101F068FA4A
:10252000FEE72C68CDE7264938680968884205D15E
:102530001360F8BDBDE8F84001F04EBA1F4B1A68B1
:10254000002A2AD11F49204B0A601A681F4902EB52
:10255000820251F822207AB91A68184612B920E08E
:102560000268F2B11A68013A1A601A6802EB820234
:1025700051F82220002AF3D01A6802EB820201EB04
:10258000820202F1080153685B6853608B4201D1FB
:102590005B685360DB682B60F8BD0A4B01221A6050
:1025A000F8BD01F025FAFEE7C0010020140200206A
:1025B000380100203401002014000020B801002060
:1025C000BC0100202C020020280200205401002021
:1025D00070B5044670B1194D2B68984209D001F0CE
:1025E00029FA174A6369934207D0BDE8704001F0A9
:1025F00033BA70BD01F0FCF9FEE7A36A114A9342B9
:10260000F3D0002BF1D1261D3046FEF753FF0E4AC2
:10261000E36A11680D488B4288BF136003EB8303A4
:1026200000EB83003146FEF71DFF2B68E26ADB6A90
:102630009A42DAD301F0D0F9D7E700BFC0010020F9
:1026400014020020C40100202802002054010020B0
:10265000F8B5044670B101F0BDFA01F0C9F91F4A9E
:1026600063699342074608D03846002501F0F0F927
:102670002846F8BD01F0BCF9FEE7A56A1848854276
:10268000F2D0002DF0D1174A1268F2B9164AE36A67
:102690001268D56A261DAB42304634BF002501259D
:1026A000FEF708FF114AE36A116811488B4288BFA0
:1026B000136003EB830300EB83003146FEF7D2FE89
:1026C000384601F0C5F92846F8BD04F11801FEF7B7
:1026D000C9FE384601F0BCF92846F8BD14020020B6
:1026E000C4010020B8010020C00100202802002001
:1026F000540100202DE9F0414C2001F08DFA0446F0
:10270000002870D04FF4027001F086FA2063002890
:102710006ED0A5214FF402720BF0A0FC236B3B4D51
:102720004FF0490E00264C2145224420271D03F579
:10273000017384F834E084F8361084F8372084F884
:10274000350084F83860384684F83D60E662A66457
:1027500023F00708FEF782FE04F11800FEF77EFE64
:1027600005233246A3612A4924614046646201F090
:102770000DF9206001F05EF9264B1A6801321A60EB
:102780002A68002A39D0244E33681BB92B68DB6ACB
:1027900003B92C602148224A0168E36AD2F800E0BC
:1027A0000131734501601F4888BF136003EB830349
:1027B00000EB830021643946FEF754FE01F04CF92A
:1027C000336803B12B6800F081FE0128044609D16B
:1027D00001F00EF9144B34600022BDE8F0411A609C
:1027E00001F0A2B90CB1BDE8F08101F001F9FEE7FA
:1027F0002046BDE8F04101F03DBA2C601B68012B7A
:1028000001D1FFF791FC044EC4E700BFC0010020D6
:10281000F12B0008BC01002038010020E401002059
:102820002802002054010020DC01002008B501F03E
:10283000DFF8034B00221A60BDE8084001F0EEB853
:1028400038010020024B1A6801321A60704700BF3D
:10285000B801002010B501F0EDF8034B1C6801F041
:10286000FBF8204610BD00BFDC01002010B501F0D0
:10287000B1F901F0BDF8034B1C6801F0E9F82046FE
:1028800010BD00BFDC010020014B1868704700BF7D
:10289000BC0100202DE9F84F444B1B68002B50D1A0
:1028A000434B1A6801321A601F68002F56D0DFF8B8
:1028B00020B1DBF800203F4D3F4E974255D3DFF863
:1028C000149100242AE03D4B1A68D268D2F80C809B
:1028D000D8F8041008F1040A8F4250465CD3FEF782
:1028E000E9FDD8F8281008F1180009B1FEF7E2FD5B
:1028F000D8F82C30D9F8002003EB8300934205EB85
:102900008000514688BFC9F80030FEF7ABFD306843
:10291000D8F82C10C26A914228BF0124274B1A68AC
:102920001268002ACFD14FF0FF32CBF80020336875
:10293000DB6A03EB830355F82330022B28BF012405
:1029400004E01F4B1A6801321A6000241D4B1B68FB
:10295000002B18BF01242046BDE8F88F174B1A68DA
:10296000126822B101F044F8FEE70024DFE71649BF
:102970001868164A0C681C60086011680131116003
:102980001A6812685AB11A68DFF844B0D268D2687F
:102990005268CBF800208CE7CBF80010C7E7DFF8CF
:1029A00030B04FF0FF32CBF8002082E7B8010020B2
:1029B000DC01002054010020C0010020340100206F
:1029C000100200202C020020E0010020D80100208D
:1029D00014000020280200202DE9F84F304C236815
:1029E00013B901F005F8FEE701F024F82368013B74
:1029F00023602368002B36D12A4B1B68002B32D072
:102A0000DFF8B0B0284D294EDFF8ACA0DFF8AC906D
:102A1000D8461EE0D8F80C30DC68271D04F11800F9
:102A2000FEF748FD3846FEF745FDE36A326803EBE2
:102A30008300934239460AEB800088BF3360FEF77B
:102A400011FDD9F80030E26ADB6A9A4224BF012303
:102A50002B60DBF80030002BDCD1154C236843B928
:102A60002C68012C14D0002400F0F6FF2046BDE8AD
:102A7000F88F2368002BF3D00126FFF70BFF00B17E
:102A80002E602368013B23602368002BF5D1E7E724
:102A900000F0A2FF00F0E0FF2046BDE8F88F00BF85
:102AA000B8010020BC0100202C02002028020020D8
:102AB00010020020C401002054010020C0010020A9
:102AC00070B500283ED0002939D0234A1368002B66
:102AD00032D11468214E03680134146032689A427E
:102AE00003EB01041DD3A34201D8A2421BD21C4D0B
:102AF000046028680430FEF7DDFC2A6833685460FF
:102B00009C4222D3174B186829680431FEF7B8FCA1
:102B1000154B1A68944238BF1C60FFF75DFF38B14F
:102B200070BDA342E1D80460FFF756FF0028F7D13B
:102B3000BDE8704000F050BF00F05AFFFEE700F023
:102B400057FFFEE700F054FFFEE7084B18682968BE
:102B50000431FEF795FCE0E7B8010020DC0100201D
:102B6000C00100203401002014000020E0010020FA
:102B700070B5024618B9BDE8704000F02DBF164B85
:102B80001968F9B91968154E154D01311960346885
:102B9000286804301444FEF78DFC2A6833685460BA
:102BA0009C4212D30F4B186829680431FEF768FC69
:102BB0000D4B1A68944238BF1C60FFF70DFF0028C8
:102BC000D9D070BD00F014FFFEE7084B18682968E3
:102BD0000431FEF755FCF0E7B8010020DC010020CD
:102BE000C00100203401002014000020E00100207A
:102BF0001C4E1D4D1D4CDFF87880DFF878902DE9D4
:102C00008848B24606E02368376801332360FFF73F
:102C1000E3FE4FB92B68002BF5D1D9F80030012B1A
:102C2000F8D900F0D9FEF5E700F004FFDAF80C302F
:102C3000D3F80CB00BF10400FEF73CFCD8F80030E0
:102C4000094A013BC8F800301368013B136000F0EB
:102C500003FFDBF8300001F00DF8584601F00AF8E8
:102C6000D8E700BF400100203C010020B80100204F
:102C7000BC01002054010020734B2DE9F04F1D686A
:102C8000724C01351D60236885B08B420190029221
:102C900000F282806E4A4FF00009A2F10C0A02F1A4
:102CA0005806C8464FF0010C56F8080C68BB143E95
:102CB00056458144F8D1674B1E683768002F40F0B5
:102CC000D180654BD3F800E0DEF80060B944002EF7
:102CD00040F00C81DFF888E1DEF80070B144002F8D
:102CE00040F04B81DFF874E1DEF8006007EB090A81
:102CF000002E58D1029A56440AB100231360FFF700
:102D00006BFE304605B0BDE8F08F56F8043C5968BC
:102D10004F4B46F8041CB14203F1580204BF7168DE
:102D200046F8041CF71A1744019ACD6802EB4913C0
:102D30000020496846F8041CB14204BF57F8541CEF
:102D400046F8041CCA681A6002F134045C60146C12
:102D50009C6083F80CC0D46A1C61946C5C61C3F8FD
:102D60001880146B94F800E0BEF1A50F12D1A646AE
:102D700000241EF801BFBBF1A50F04F10104F8D037
:102D8000C4F38F0495429C8300F1010003F12003FA
:102D9000CFD18CE70024F5E7FFF71EFE0026304672
:102DA00005B0BDE8F08FDEF804305D68CEF8045061
:102DB0000EF1080C654508BFDEF80C50DEF80C304B
:102DC000D5F80C906D680393019BCEF80450002653
:102DD000654503EB4A1037464FF003084FF0020BEE
:102DE0002CD0EC68046004F134034360236C8360EE
:102DF00080F80C80E36A0361A36A0BB180F80CB021
:102E0000A36C43618761226B1378A52B4FF00003FD
:102E100007D112F8011FA52903F10103F9D0C3F36B
:102E20008F03A145838306F1010600F120003FF4E2
:102E300061AF6D68CEF804506545D2D1039A074B57
:102E400015465A60CDE700BFB8010020BC01002044
:102E50005401002034010020E00100201402002071
:102E60004001002073685D68756006F1080E7545C5
:102E700008BF6D68019BD5F80CA00027B84603EB8E
:102E800049104FF0020C6D687560AE4504BFF568DF
:102E90007560EA68026002F134034360136C83607A
:102EA00080F80CC0D36A0361936C4361C0F818804A
:102EB000116B0B78A52B4FF0000307D111F8014FD0
:102EC000A52C03F10103F9D0C3F38F03924583834B
:102ED00007F1010700F12000D5D14D4BD3F800E0F8
:102EE000DEF80060B944002E3FF4F4AEDEF80430A2
:102EF0005D68CEF804500EF1080C654508BF6D689A
:102F0000019BD5F80CA00026374603EB49104FF083
:102F100002086D68CEF80450AC4504BFDEF80C50D2
:102F2000CEF80450EA68026002F134034360136C87
:102F3000836080F80C80D36A0361936C436187617E
:102F4000116B0B78A52B4FF0000307D111F8014F3F
:102F5000A52C03F10103F9D0C3F38F0392458383BA
:102F600006F1010600F12000D3D1DFF8A8E0DEF879
:102F70000070B144002F3FF4B5AEDEF80430DEF847
:102F80000CB05D68CEF804500EF1080C654508BF22
:102F9000DEF80C50019BD5F80CA06D68CEF80450FB
:102FA000002765453E4603EB49104FF0040859469B
:102FB00029D0EB68036003F1340242601A6C82602E
:102FC00080F80C80DA6A02619A6C426186611C6B3F
:102FD0002278A52A4FF0000208D114F801BFBBF1F6
:102FE000A50F02F10102F8D0C2F38F029A45828345
:102FF00007F1010700F120003FF474AE6D68CEF8D0
:1030000004506545D5D1034A0D465160D1E700BF54
:10301000E00100204001002008B51D4B1A684ABBA2
:103020001C491D4B0A601A681C4902EB820251F8C8
:1030300022207AB91A68184612B91FE00268EAB16C
:103040001A68013A1A601A6802EB820251F82220CB
:10305000002AF3D01A6802EB820201EB820202F12D
:10306000080153685B6853608B420AD00C4ADB68E6
:10307000136008BD074B01221A6008BD00F0B8FCC0
:10308000FEE75B685360064ADB68136008BD00BF5B
:10309000B80100202C02002028020020540100204A
:1030A000C001002038B50D4600282DD0184C2168ED
:1030B0001831FEF7E5F920680430FEF7FBF96B1CC8
:1030C0001BD0144B196822681B680D449D42556043
:1030D0000BD3114B186821680431FEF7D1F90F4B5F
:1030E0001A68954238BF1D6038BD0D4B18682168BD
:1030F000BDE838400431FEF7C3B9216809480431FE
:10310000BDE83840FEF7AEB900F072FCFEE700BF44
:10311000C0010020DC010020340100201400002048
:10312000E00100201402002038B5154648B31E4BBC
:103130001B6813B900F05CFCFEE71C4C2268236896
:1031400041F00041916103F11801FEF78BF920680D
:103150000430FEF7AFF96B1C1ED0154B19682268BE
:103160001B680D449D4255600ED3124B18682168B0
:103170000431FEF785F9104B1A68954238BF1D607F
:1031800038BD00F035FCFEE70C4B18682168BDE83F
:1031900038400431FEF774B9216809480431BDE8AC
:1031A0003840FEF75FB900BFB8010020C001002021
:1031B000DC0100203401002014000020E001002088
:1031C0001402002038B50D46E0B1144C21681831C6
:1031D000FEF748F920680430FEF76CF9104B1968C7
:1031E00022681B680D449D4255600ED30D4B186834
:1031F00021680431FEF744F90B4B1A68954238BF39
:103200001D6038BD00F0F4FBFEE7084B186821682C
:10321000BDE838400431FEF733B900BFC0010020DB
:10322000DC0100203401002014000020E001002017
:1032300038B5C368DC68002C29D004F1180528468D
:10324000FEF738F9134B1B68E3B9251D2846FEF736
:1032500031F9114AE36A116810488B4288BF136044
:1032600003EB8303294600EB8300FEF7FBF80C4BCE
:10327000E26A1B68DB6A9A4283BF0A4B012018602E
:10328000002038BD29460848FEF7ECF8EFE700F0CB
:10329000AFFBFEE7B8010020280200205401002007
:1032A000C00100202C020020C401002038B5164BBC
:1032B0001A681AB3C46841F0004202600CB3251DBD
:1032C000FEF7F8F82846FEF7F5F8104AE36A1168A9
:1032D0000F488B4288BF136003EB830300EB83002E
:1032E0002946FEF7BFF80B4BE26A1B68DB6A9A427D
:1032F00083BF094B01201860002038BD00F078FB27
:10330000FEE700F075FBFEE7B80100202802002070
:1033100054010020C00100202C02002008B530B16B
:10332000044A054B12681B6880E80C0008BD00F0D9
:103330005FFBFEE7D8010020DC010020F8B5044661
:103340000D4658B339B300F075FB296815484B1C7E
:1033500002681BD0144E23683768BB42636801D0F3
:103360009A420ED2D71AB9420BD98A1A134431683D
:1033700002682B60002584E8060000F06DFB2846FB
:10338000F8BD012500F068FB2846F8BD002500F0D7
:1033900063FB2846F8BD00F02BFBFEE700F028FB9E
:1033A000FEE700BFDC010020D8010020014B012214
:1033B0001A6070472C02002000B1406C704700BFBB
:1033C00000B14164704700BF014B1868704700BFEF
:1033D000C0010020054B1B6833B1054B1B68002B57
:1033E00014BF0020022070470120704738010020E0
:1033F000B8010020F8B50446C0B1174DC36A2A6869
:10340000D26A934212D28269002A04DB2A68D26A05
:10341000C2F105028261114E626903EB830306EB80
:1034200083039A4203D02B68DB6AE362F8BD271D51
:103430003846FEF73FF82B68094ADB6A1168E362F9
:103440008B4200D9136003EB830006EB8000394602
:10345000BDE8F840FEF706B8C00100205401002086
:103460002802002038B50446F0B1C26A836C9A4243
:103470001AD0051D2846FEF71DF8A269A36C0B485B
:10348000E362002AA4BFC3F10502A261084A1168E1
:103490008B4288BF136003EB8303294600EB830054
:1034A000BDE83840FDF7DEBF38BD00BF5401002045
:1034B00028020020044B19681A681B688869DB6AB7
:1034C000C3F1050393617047C0010020F0B51D4CA6
:1034D00085B000F0AFFA266896B100F0BDFA236817
:1034E0004BB3002302228DE80C000293039316488D
:1034F00016494FF48272FEF747FEE0B105B0F0BD09
:10350000134F144D3846FDF79DFF2846FDF79AFFEF
:10351000114A124B17600A2032460C211D60FEF73B
:103520006DF8206050B10E49FEF74AFD00F094FAA4
:103530002368002BD5D100F05BFAFEE700F058FAC3
:10354000FEE700BF600200206536000830E7000893
:1035500034020020480200203002002064020020D3
:1035600028E700082DE9F04F0D4683B083469246C8
:103570001F46E9B12C2000F04FFB0446A0B11D4EC0
:1035800000F058FAD6F80090B9F1000F13D000F00F
:1035900063FA0C9BC4F800B0A561C4F81CA02762B4
:1035A0006362201DFDF75AFF204603B0BDE8F08F8F
:1035B00000F01EFAFEE7104BDFF848800193184632
:1035C000FDF740FF4046FDF73DFF0C49019BDFF84A
:1035D00038E00B604A460A200C21CEF80080FEF746
:1035E0000DF8306018B10649FEF7EAFCCFE700F0AD
:1035F000FFF9FEE7600200203402002030020020C4
:1036000028E70008480200206402002030B5144D6D
:103610002C6885B004B305290191029203900BDC5C
:10362000FFF7D8FE02280FD000222868134601A910
:10363000FEF762F805B030BD1A46204601A9002306
:10364000FEF7E8F905B030BD2868089A01A9002303
:10365000FEF752F805B030BD204605B030BD00BFC2
:10366000600200202DE9F04FA44DA54CDFF89482B4
:1036700089B02B681E68D6F1010638BF0026002EDF
:1036800063D1DB68D3F80090FFF7DCF8FFF7E2F8CE
:10369000D8F800309B4A9842074659D3106016B9B3
:1036A000B94540F29180C7EB09012068FEF7E4FCC0
:1036B000FFF792F9002800F084800022134620686A
:1036C00002A9FEF739FA0028D3D0029B002BF4DBC5
:1036D000049F7B6913B1381DFDF7ECFEFFF7BAF8C4
:1036E000D8F800309842814624D3029BC8F8009055
:1036F000092BE2D8012202FA03F313F4047F40F00D
:10370000EC8013F0C70F40F0C7809B06D5D5384634
:1037100000F0B0FAD1E7DB68DE68D3F800B006F15C
:10372000040A5046FDF7C6FE736A30469847F369AF
:10373000012B3AD02B681A68002AECD172490A682A
:103740006E490A60704A1360CFE74FF000099BE7AB
:103750004FF000090EE0DB68DE68D3F800B006F138
:10376000040A5046FDF7A6FE736A30469847F3698F
:10377000012B0ED02B681A68002AECD16249C8F8D8
:1037800000700A685D490A605F4A1360FFF724F918
:1037900093E7B3695B445B452AD95849736008686D
:1037A00036615146FDF76CFEE4E7B3695B445B4567
:1037B00033D9524A7360366110685146FDF760FE96
:1037C000B8E700F009F978E7FFF706F92B68DB683E
:1037D000D3F80CA00AF1040B5846FDF76BFEDAF89B
:1037E0001C30012B2FD0DAF824305046984764E77C
:1037F00023687BB1CDF81490CDF818B00796FFF789
:10380000E9FD3F4900220868134605A9FDF774FF4A
:103810000028AFD100F0ECF8FEE7236883B1002365
:103820000593CDF818B00796FFF7D4FD3449002270
:103830000868134605A9FDF75FFF00287FF47AAFFB
:1038400000F0D6F8FEE7DAF81830CAF810A009EB55
:1038500003029742CAF8042005D2284A5946106844
:10386000FDF70EFEBFE7C9EB0707BB424ED8236842
:103870007BB10596CDF81890CDF81CA0FFF7AAFDF6
:103880001F4932460868334605A9FDF735FF002871
:10389000A9D100F0ADF8FEE7039BB9693F61CA18F2
:1038A0004A457A6038D8C3EB090399423DD87B6A10
:1038B00038469847FB69012B7FF4FFAEBA69039B3A
:1038C00000211A44009138460B46FFF79FFE00285E
:1038D0007FF4F3AE00F08CF8FEE7039BBB6153B3BB
:1038E0004B444B4598BF084A7B603F6107F1040198
:1038F00094BF10682868FDF7C3FDDEE630020020A3
:10390000600200205C020020640200200B4B59463C
:103910001868FDF7B5FD66E74B4501D99342C6D956
:10392000391D2868FDF7ACFDC7E6044B391D186842
:10393000FDF7A6FDC1E600F05BF8FEE7640200209B
:1039400010B5044600F076F86469003418BF01240D
:1039500000F082F8204610BD006A704705480068F4
:10396000006880F3088862B6BFF34F8FBFF36F8F94
:1039700000DF00BF08ED00E0DFF80C00016841F453
:10398000700101607047000088ED00E010B4094B41
:1039900040F8081C4FF080746FF0020140F8044CAE
:1039A00040F8202C40F80C3C40F8241C5DF8044BF7
:1039B00044387047013A0008064B19680868B0E8B7
:1039C000F04F80F30988BFF36F8F4FF0000080F352
:1039D00011887047C0010020044B4FF080521A60DC
:1039E000BFF34F8FBFF36F8F704700BF04ED00E050
:1039F000EFF311804FF0500181F3118870470020E0
:103A000008B5054B1B68013302D0FFF7F1FFFEE755
:103A1000FFF7EEFFFEE700BF1800002008B5044BDB
:103A20001B68B3F57A7F02D0FFF7E2FFFEE708BD1F
:103A30001800002008B5FFF7DBFF044B1A680132BD
:103A40001A60BFF34F8FBFF36F8F08BD18000020BF
:103A500080F31188704700BF08B5074B186818B18C
:103A60000138186018B108BDFFF7C2FFFEE7BDE8D6
:103A70000840FFF7EDBF00BF18000020EFF30980FA
:103A8000BFF36F8F124B1A681EF0100F08BF20EDA6
:103A9000108A20E9F04F10604DF8043D4FF05000BF
:103AA00080F31188FFF7B8FA4FF0000080F3118817
:103AB00008BC19680868B0E8F04F1EF0100F08BF86
:103AC000B0EC108A80F30988BFF36F8F704700BF96
:103AD000C001002008B5FFF78BFFFEF7DBFE18B131
:103AE000044B4FF080521A600020BDE80840FFF7F9
:103AF000AFBF00BF04ED00E0074B084A1868084953
:103B0000084B10B4A2FB004080090138072208606E
:103B10005DF8044B1A60704710000020D34D62100E
:103B200014E000E010E000E010B5244B24491C78BC
:103B3000244882B0E4B2FF2201941A701B78DBB2F1
:103B40008DF803309DF803409DF8032004F05004E5
:103B500007230C70110603600ED5062300E00B4608
:103B60009DF803205200D2B28DF803209DF8032067
:103B7000120603F1FF31F2D4019C1049124A1B02D4
:103B800003F4E063E4B203600C70136843F4700361
:103B90001360136843F070431360FFF7ADFF0B4BE6
:103BA00000221A60FFF7E8FE094B1A6842F0404213
:103BB0001A60FFF7D3FEFFF723FF00BF00E400E029
:103BC000680200206C02002020ED00E018000020B8
:103BD00034EF00E008B5EFF305830F2B05D90A4950
:103BE0000A4A5B5C12789A420BD8094A094B126860
:103BF0001B6802F4E0629A4200D808BDFFF7F8FEA5
:103C0000FEE7FFF7F5FEFEE7F0E300E068020020C4
:103C10000CED00E06C02002038B5430704461CBFE1
:103C200020F007040834FEF70DFE0E4A13689BB11E
:103C30001D460D4A0D4913681C448C4207D8A34207
:103C400005D21D441460FEF7C7FE284638BD002586
:103C5000FEF7C2FE284638BD054D25F00705156064
:103C6000E7E700BF742E012070020020F72B01004F
:103C70007C02002008B510B1FFF7BAFEFEE708BDD0
:103C8000014B00221A60704770020020034B186835
:103C9000C0F5953000F5FC70704700BF7002002041
:103CA00040F0BF60024B40F40030D860704700BF66
:103CB00000ED00E0C378F0B463B90378194A5909FC
:103CC000203103F01F03012000FA03F342F82130F2
:103CD000F0BC7047144B4778DA688578037811494F
:103CE000D243C2F30222C2F104040F26E4B207FA5F
:103CF00004F446FA02F2E4B22A40224303F160439C
:103D000003F561431201D2B283F800230378012046
:103D100003F01F025B0900FA02F241F82320F0BC15
:103D2000704700BF00E100E000ED00E021F06041DD
:103D300021F07F01014B08439860704700ED00E0DF
:103D4000044B1A6919B922EA000018617047104340
:103D50001861704700ED00E0044B1A6804280CBF9E
:103D600042F0040222F004021A60704710E000E002
:103D700008B54B4B98422AD04A4B984231D04A4B17
:103D8000984238D0494B98423FD0494B984246D050
:103D9000484B98424DD0484B984254D0474B98429C
:103DA0005BD0474B984262D0464B98426BD0464B13
:103DB000984200D008BD4FF48060012100F022FB42
:103DC0004FF480600021BDE8084000F01BBB0120DB
:103DD000014600F017FB01200021BDE8084000F07B
:103DE00011BB0220012100F00DFB02200021BDE8E3
:103DF000084000F007BB0420012100F003FB042071
:103E00000021BDE8084000F0FDBA0820012100F0C3
:103E1000F9FA08200021BDE8084000F0F3BA1020AC
:103E2000012100F0EFFA10200021BDE8084000F069
:103E3000E9BA2020012100F0E5FA20200021BDE8A8
:103E4000084000F0DFBA4020012100F0DBFA4020FA
:103E50000021BDE8084000F0D5BA8020012100F023
:103E6000D1FA80200021BDE8084000F0CBBA4FF421
:103E70008070012100F0C6FA4FF480700021BDE887
:103E8000084000F0BFBA4FF40070012100F0BAFA08
:103E90004FF400700021BDE8084000F0B3BA00BF45
:103EA000000002400004024000080240000C0240F2
:103EB000001002400014024000180240001C0240A2
:103EC00000200240002402400028024000222DE988
:103ED000F00713460E6801274FF0030804E0013392
:103EE000102B02F102022CD007FA03F404EA0605B3
:103EF000A542F4D1D0F8009091F804C008FA02F479
:103F0000E44304EA0909C0F80090D0F800900CFAE4
:103F100002FA0CF1FF3C4AEA0909BCF1010FC0F8B2
:103F2000009011D9C56891F807C02C40C460C568DD
:103F30000CFA02F401332C43102BC46002F102028C
:103F4000D2D1BDE8F0077047D0F808A091F80590ED
:103F500091F806C004EA0A0AC0F808A0D0F808A040
:103F600009FA02F949EA0A09C0F80890D0F8049061
:103F700029EA0505456045680CFA03FC1FFA8CFC2C
:103F80004CEA05054560CDE700234FF6FF7202605D
:103F9000037143718371C371704700BF82B04FF4E6
:103FA00080330193019B0B430193019BC361C1616A
:103FB000019BC361C3690193C369019302B0704758
:103FC000036919420CBF002001207047006980B2CC
:103FD000704700BF436919420CBF002001207047A1
:103FE000406980B2704700BF0183704741837047CA
:103FF0000AB9418370470183704700BF4161704730
:104000004369594041617047CB0800EB830001F0E0
:10401000070110B48900046A0F238B4024EA0303CC
:104020000362036A5DF8044B8A40134303627047DE
:104030000F4B10481968002241F0010130B419609B
:104040009A6019680C4D0D4C21F0A85121F41021F3
:1040500019605D60C3F88440C3F88800196821F4D2
:104060008021196030BCDA60C3F88C20704700BF33
:1040700000380240003000241030002400300020BE
:10408000024B00221A701870704700BF02380240BD
:1040900082B000230B4A019313689B030CD4019B4D
:1040A00001330193019BB3F5A04FF5D1054B18687F
:1040B000C0F3404002B07047019B01330193019B64
:1040C000F4E700BF00380240034B1A6822F0F80200
:1040D00042EAC0001860704700380240014B186087
:1040E000704700BF00004742064B002201281A70AB
:1040F0001A7005D0042802D105221A707047704743
:104100001870704770380240014B1860704700BF4C
:10411000800E474230B4029C064D40EA04605B08C2
:104120000143013B41EA821242EA03436B6030BC27
:10413000704700BF00380240014B1860704700BF55
:1041400060004742120742EA0161034B41EA8010D6
:10415000C3F88400704700BF00380240014B18606C
:10416000704700BF68004742120742EA0161034BF3
:1041700041EA8010C3F88800704700BF0038024051
:10418000014B1860704700BF70004742014B186038
:10419000704700BF4C004742034B9A6822F0EC6224
:1041A000114308439860704700380240034B9A68F7
:1041B00022F078421143084398607047003802406B
:1041C000034B9A6822F0030210439860704700BFC7
:1041D00000380240024B986800F00C00704700BFA6
:1041E00000380240034B9A6822F0F00210439860B6
:1041F000704700BF00380240034B9A6822F4E05237
:1042000010439860704700BF00380240034B9A6823
:1042100022F4604242EAC0009860704700380240D1
:104220001F4A936803F00C03042B10B41BD0082B17
:104230001CD01C4B03601A491B4A8C68C4F303143E
:10424000145DE34043608C68C4F38224145D23FA58
:1042500004F4846089685DF8044BC1F34231525C18
:10426000D340C3607047114B0360E4E75468516862
:10427000526863024CBF0D4B0A4B01F03F01C2F381
:104280008812B3FBF1F303FB02F3054A5268C2F351
:10429000014201325200B3FBF2F30360CBE700BFEF
:1042A000003802400024F4001C00002000127A00B4
:1042B00000F44073B3F5407F09D1084A916820F0BB
:1042C000704321F4F81123F440730B439360034BC4
:1042D0001A6FC0F30B001043186770470038024094
:1042E000014B1860704700BF3C0E4742014B1860FD
:1042F000704700BF400E4742014B1860704700BF37
:104300005C014742044BD3F88C20013822F01F0295
:104310000243C3F88C20704700380240054BD3F8A5
:104320008C20013822F4F85242EA0022C3F88C2093
:10433000704700BF00380240044BD3F88C2022F4B1
:1043400040121043C3F88C00704700BF0038024091
:10435000044BD3F88C2022F440021043C3F88C00A5
:10436000704700BF00380240044BD3F88C2022F481
:1043700040321043C3F88C00704700BF0038024041
:10438000014B1860704700BFE0114742044B1A6BA5
:1043900019B922EA00001863704710431863704788
:1043A00000380240044B5A6B19B922EA00005863E6
:1043B000704710435863704700380240044B9A6BB3
:1043C00019B922EA00009863704710439863704758
:1043D00000380240044B1A6C19B922EA0000186434
:1043E000704710431864704700380240044B5A6C01
:1043F00019B922EA000058647047104358647047A6
:1044000000380240044B1A6919B922EA0000186109
:10441000704710431861704700380240044B5A69D6
:1044200019B922EA0000586170471043586170477B
:1044300000380240044B9A6919B922EA00009861D9
:10444000704710439861704700380240044B1A6A65
:1044500019B922EA000018627047104318627047C9
:1044600000380240044B5A6A19B922EA0000586227
:10447000704710435862704700380240044B1A6D71
:1044800019B922EA00001865704710431865704793
:1044900000380240044B5A6D19B922EA00005865F1
:1044A000704710435865704700380240044B9A6DBE
:1044B00019B922EA00009865704710439865704763
:1044C00000380240044B1A6E19B922EA000018663F
:1044D000704710431866704700380240044B5A6E0C
:1044E00019B922EA000058667047104358667047B1
:1044F00000380240044B1A7819B922EA00001870FB
:1045000070471043187070470D3802404309012B63
:104510000BD0022B094B0CBF1B6F5B6F00F01F0011
:1045200023FA00F000F001007047044B1B6800F014
:104530001F0023FA00F000F001007047003802402D
:10454000024B5A6F42F080725A677047003802403F
:10455000034BDB6818420CBF00200120704700BFEE
:1045600000380240014B1870704700BF0E380240FF
:1045700008B53A4B984221D0394B984228D0394B54
:10458000984231D0384B98423AD0384B984243D079
:10459000374B98424CD0374B984253D0364B9842C9
:1045A00000D008BD4FF000400121FFF74FFF4FF052
:1045B00000400021BDE80840FFF748BF102001215E
:1045C000FFF750FF10200021BDE80840FFF74ABF69
:1045D0004FF400300121FFF739FF4FF40030002184
:1045E000BDE80840FFF732BF4FF480200121FFF7FC
:1045F0002DFF4FF480200021BDE80840FFF726BFC3
:104600004FF400200121FFF721FF4FF4002000218B
:10461000BDE80840FFF71ABF4FF480100121FFF7F3
:1046200015FF4FF480100021BDE80840FFF70EBFD2
:1046300020200121FFF716FF20200021BDE80840BF
:10464000FFF710BF4FF080400121FFF7FFFE4FF052
:1046500080400021BDE80840FFF7F8BE001001408F
:104660000044004000480040004C00400050004022
:104670000014014000780040007C0040F0B50D4679
:10468000018AEF882E89AB88AA8989B2044621F471
:104690004051394368892182A189334389B2034358
:1046A00021F4B05121F00C019BB20B43A381A38AEA
:1046B0009BB223F44073134385B0A3826846FFF78F
:1046C000AFFD1D4B9C4229D003F580639C4225D051
:1046D000029BA2892968A08912B2002A03EB8303F6
:1046E000B4BF4900890003EB8303B3FBF1F2134924
:1046F00000B2A1FB02535B096425002803FB1522CD
:104700004FEA03130CDB12013232A1FB0251C1F359
:1047100043110B439BB2238105B0F0BD039BD8E747
:10472000D2003232A1FB0201C1F342110B439BB212
:10473000238105B0F0BD00BF001001401F85EB5183
:1047400000234FF416510C22016042818380C38004
:1047500003818381704700BF30B40A884D888C88FC
:10476000038AC9882A4322430A439BB292B223F4A4
:1047700070631343038230BC704700BF0023038083
:1047800043808380C3807047838929B923F4005311
:104790001B041B0C838170479BB243F4005383813D
:1047A000704700BF038B03F47F430383038B9BB2EB
:1047B00019430183704700BF838919B9C3F30E03FE
:1047C000838170476FEA43436FEA53439BB283810F
:1047D000704700BF838A29B923F400631B041B0CB4
:1047E000838270479BB243F400638382704700BFAB
:1047F000C1F30801818070478088C0F308007047CA
:10480000038A23F00F031B041B0C0382038A9BB251
:1048100019430182704700BF838929B923F002033D
:104820001B041B0C838170479BB243F002038381FE
:10483000704700BF838923F400631B041B0C838132
:1048400083899BB219438181704700BF038A23F09B
:1048500020031B041B0C0382038A9BB219430182B1
:10486000704700BF038A29B923F480431B041B0C43
:10487000038270479BB243F480430382704700BFBA
:1048800083899BB243F0010383817047838A29B9EE
:1048900023F008031B041B0C838270479BB243F078
:1048A00008038382704700BF038BDBB20383038B53
:1048B0009BB243EA01210183704700BF838A29B973
:1048C00023F020031B041B0C838270479BB243F030
:1048D00020038382704700BF838A29B923F0100325
:1048E0001B041B0C838270479BB243F0100383822E
:1048F000704700BF838A23F004031B041B0C8382D0
:10490000838A9BB219438182704700BF838A29B989
:1049100023F002031B041B0C838270479BB243F0FD
:1049200002038382704700BF838A9BB21AB923EACD
:1049300001018182704719438182704701F01F0392
:1049400010B4C1F342110124A14204FA03F310D0C0
:1049500002290CBF1030143004682AB924EA03037A
:1049600003605DF8044B7047234303605DF8044B1C
:1049700070470C30F0E700BF038819420CBF0020DD
:1049800001207047C94389B20180704710B4C1F358
:104990004213012401F01F02A34204FA02F217D0CD
:1049A000022B0CBF038A838A9BB21340028892B207
:1049B00053B1090A012303FA01F111420CBF00208F
:1049C00001205DF8044B704718465DF8044B7047B2
:1049D00083899BB21340E9E7090A012303FA01F135
:1049E000C94389B20180704708B54FF48040012166
:1049F000FFF738FD4FF480400021BDE80840FFF785
:104A000031BD00BF014B1860704700BF0038014046
:104A1000014B1860704700BF2000274201F0FC03E3
:104A200003F1804303F59C3301F0030110B48900C6
:104A30009C680F228A4024EA02029A609A685DF814
:104A4000044B884002439A60704700BF014B1860D6
:104A5000704700BFDC002742014B1860704700BF61
:104A600000042742024B186AC0F30020704700BFC1
:104A70000038014008B5174B984212D0164B9842A7
:104A80001BD0164B984200D008BD4FF40000012106
:104A9000FFF7DCFC4FF400000021BDE80840FFF701
:104AA000D5BC4FF400100121FFF7D0FC4FF40010EB
:104AB0000021BDE80840FFF7C9BC4FF48000012188
:104AC000FFF7C4FC4FF480000021BDE80840FFF769
:104AD000BDBC00BF0054004000580040005C0040D6
:104AE000F0B5044685B068460D46A688FFF798FBEA
:104AF000029930482A68DFF8C4C0A0FB013026F0D4
:104B00003F063604800C360C87B23E43A6802388CD
:104B100023F001031B041B0C6245238023D85300A0
:104B2000B1FBF3F39BB2032B07F1010798BF0423FA
:104B30002784A38323886E89A8882989AA899BB2A0
:104B400043F001032380238823F4816323F00203CD
:104B50001B0430431B0C03430A439BB292B22380D5
:104B6000228105B0F0BDEE884BF6FF739E421AD04D
:104B700002EB820202EB8202B1FBF2F39BB243F43E
:104B80008043C3F30B020AB943F001034FF496715B
:104B9000094A01FB00F082FB00108009013043F458
:104BA00000432084C5E702EB4202B1FBF2F39BB263
:104BB000E7E700BF83DE1B43D34D6210A0860100F0
:104BC000002310B44BF6FF7141F288344FF4804259
:104BD0000460C18082818380038143815DF8044B3E
:104BE000704700BF038829B923F001031B041B0C85
:104BF000038070479BB243F001030380704700BFFE
:104C0000838C21B99BB243F010038384704723F057
:104C100010031B041B0C8384704700BF838C9BB262
:104C200001F00F0123F00F0319438184704700BF87
:104C3000038829B923F480731B041B0C038070477D
:104C40009BB243F480730380704700BF038829B987
:104C500023F400731B041B0C038070479BB243F4C6
:104C600000730380704700BF1AB901F0FE01018292
:104C7000704741F001010182704700BF038829B9E4
:104C800023F480631B041B0C038070479BB243F426
:104C900080630380704700BF83899BB201F0FE01EF
:104CA00023F0FE0319438181704700BF838929B92E
:104CB00023F001031B041B0C838170479BB243F05C
:104CC00001038381704700BF038829B923F04003A3
:104CD0001B041B0C038070479BB243F0400303800E
:104CE000704700BF038819B9C3F30E0303807047F0
:104CF0006FEA43436FEA53439BB20380704700BFA0
:104D0000038829B123F080031B041B0C0380704728
:104D10009BB243F080030380704700BFB1F5804F22
:104D2000838B05D023F480431B041B0C83837047C3
:104D30009BB243F480438383704700BFB1F5006F9B
:104D4000038805D023F400631B041B0C0380704709
:104D50009BB243F400630380704700BFB1F5005F6E
:104D6000038805D023F400531B041B0C03807047F9
:104D70009BB243F400530380704700BF038829B9F6
:104D800023F010031B041B0C038070479BB243F0FD
:104D900010030380704700BF01827047008AC0B2D1
:104DA000704700BF038829B923F480531B041B0CF0
:104DB000038070479BB243F480530380704700BF69
:104DC000B1F5006F038805D023F400631B041B0CAE
:104DD000038070479BB243F400630380704700BFB9
:104DE000038829B923F020031B041B0C03807047A0
:104DF0009BB243F020030380704700BF008BC0F3D9
:104E000007207047838829B923F400631B041B0C17
:104E1000838070479BB243F400638380704700BF78
:104E2000838829B923F480531B041B0C83807047AB
:104E30009BB243F480538380704700BF82B000234D
:104E400001930190019B19440191019B188880B244
:104E500002B0704783889BB21AB923EA01018180AE
:104E60007047194381807047828A038B90B240EA71
:104E7000034021F07F4318400B1A584258417047B5
:104E8000828A038B90B240EA034020F07F40704753
:104E900082B000230A0F0093019301900092009BBF
:104EA00021F07F4153B1019B14330193019B1B6897
:104EB00019420CBF0020012002B07047019B18333B
:104EC000090C0193F2E700BFC94389B281827047A0
:104ED0008388808A80B208409BB206D001F0E061EE
:104EE00013EA11410CBF002001207047C94389B269
:104EF0008182704710B4374A0468002324F001040B
:104F0000212190420460036043608360C3600361B9
:104F100041614DD0304B984235D0304B984239D01A
:104F20002F4B98423DD02F4B984247D02E4B984262
:104F300048D02E4B98421DD02D4B98421ED02D4B61
:104F4000984243D02C4B98421DD02C4B984221D0F4
:104F50002B4B984225D02B4B98422FD02A4B98426E
:104F600030D02A4B984205D0294B984206D05DF8A4
:104F7000044B7047274A43F8942CF8E74FF03D5212
:104F800043F8AC2CF3E74FF4746243F8202C5DF83F
:104F9000044B70474FF4741243F8382C5DF8044BFF
:104FA00070474FF0746243F8502C5DF8044B704723
:104FB000194B5DF8044B3D229A607047174A43F83D
:104FC000642CD4E7164A43F87C2CD0E73D2243F802
:104FD000082CCCE71060024028600240406002408C
:104FE000586002407060024088600240A060024049
:104FF000B8600240106402402864024040640240ED
:10500000586402407064024088640240A064024018
:10501000B864024000003D20006002403D000020D6
:10502000400F0020CA680B68D0F800C02DE9F007D7
:105030004F698E69CD690C6AD1F83490D1F8388007
:1050400042EA030A4AEA07073E434B6A4F68354380
:105050002C4344EA03028B6A0D4ECC6A0D691A4355
:1050600042EA090949EA08080CEA060648EA06067F
:105070000B6B896806604269234322F007021343E1
:10508000436145608760C160BDE8F007704700BFBD
:105090003F801CF00023036043608360C3600361B2
:1050A00043618361C361036243628362C3620363DA
:1050B00043638363704700BF036819B923F001039A
:1050C0000360704743F0010303607047036819B938
:1050D00023F400430360704743F4004303607047C8
:1050E000036819B923F020030360704743F02003DD
:1050F0000360704741607047406880B2704700BFEE
:10510000036822B923F4002303600161704743F46C
:105110000023036001617047036819B923F48023F9
:105120000360704743F48023036070470AB9C1608D
:1051300070470161704700BF0068C0F3C04070470E
:10514000006800F001007047406900F038007047C7
:105150000B4B0C4A10B40C4CA0428CBF10461846A6
:105160008B004CBF436803685DF8044B21F0F021CD
:1051700021F0821119420CBF00200120704700BFAE
:1051800000600240006402400F64024010B4094A0B
:10519000094C0A4BA0428CBF1046184611F0005F24
:1051A00021F0F02121F0821114BFC16081605DF80F
:1051B000044B7047006402400F64024000600240EC
:1051C0000B060CD54369AAB143F0800380294361E3
:1051D0000FD0036801F01E01194301607047802958
:1051E00007D0002AF5D1036801F01E0123EA01016E
:1051F0000160704723F0800380294361F3D1704739
:1052000070B4114A114D124C21F0F02323F0C31653
:10521000A84288BF224696B1046804F01E0404EA3E
:10522000D12489004CBF5268126823F0821313EA1C
:10523000020002D0201C18BF012070BC70474469D6
:1052400004F08004EDE700BF006002400F640240FC
:105250000064024010B4094A094C0A4BA0428CBFBA
:105260001046184611F0005F21F0F02121F0821164
:1052700014BFC16081605DF8044B70470064024058
:105280000F6402400060024008B52D4B98421BD0CD
:105290002C4B984224D02C4B98422DD02B4B98422B
:1052A00036D02B4B98423FD02A4B984200D008BDB5
:1052B0004FF400100121FFF7D5F84FF40010002142
:1052C000BDE80840FFF7CEB84FF480500121FFF74A
:1052D000C9F84FF480500021BDE80840FFF7C2B87C
:1052E0004FF480400121FFF7B1F84FF480400021D6
:1052F000BDE80840FFF7AAB84FF400400121FFF7CE
:10530000A5F84FF400400021BDE80840FFF79EB823
:105310004FF400500121FFF7A5F84FF40050002191
:10532000BDE80840FFF79EB84FF480100121FFF759
:1053300099F84FF480100021BDE80840FFF792B8BB
:105340000030014000380040003C00400034014083
:1053500000500140005401402DE9F007B1F802A0CF
:10536000B1F80090B1F804800F894E898D89CC89FD
:10537000B1F806C00A8A03884AEA090141EA08012D
:1053800041EA0C01394331432943214303F441539A
:105390000B439BB20380838B23F400631B041B0C21
:1053A0008383BDE8F0070282704700BF838B8A6861
:1053B00023F47B6323F00F031B042DE9F0071B0C80
:1053C000022483830484B0F81CC0A2421FFA8CFC20
:1053D0004FD02E4B8C889D68002C0CBF4FF02009BD
:1053E0004FF040092D023FD4284B294FD3F8845069
:1053F000D3F88460D3F804A0CB880AF03F0AC5F341
:105400008818B7FBFAF7C6F3027608FB07F7B3F57F
:10541000007FB7FBF6F62FD0B6FBF9F505EB850557
:105420006D00B5FBF2F2053292B21A4DA5FB026295
:10543000D2085508AE1E02F00102FD2E94BF45EAC7
:10544000022202220F884E888D894CEA070141F41E
:10545000006131432943134389B20C439BB2038457
:105460008483BDE8F00770479D6825F400059D60C2
:10547000BAE78C88CB88E5E7360A06EB8606760025
:10548000B6FBF2F2053292B2CFE700BF003802401D
:1054900000127A00CDCCCCCC0023072202820380FC
:1054A00043808380C380038143818381C3817047AC
:1054B000002302228260036043608381704700BF43
:1054C000038829B923F040031B041B0C0380704799
:1054D0009BB243F040030380704700BF838B29B920
:1054E00023F480631B041B0C838370479BB243F43B
:1054F00080638383704700BF038823F400631B0429
:105500001B0C038003889BB219430180704700BFC6
:10551000B1F5804F038805D023F480431B041B0C96
:10552000038070479BB243F480430380704700BF01
:105530004FF6FF639942038804D09BB243F4807313
:105540000380704723F480731B041B0C0380704797
:10555000838829B923F004031B041B0C8380704744
:105560009BB243F004038380704700BF838829B94E
:1055700023F010031B041B0C838070479BB243F085
:1055800010038380704700BF838B23F47B6323F079
:105590000F031B0402221B0C83830284838B0A8863
:1055A00030B44D888C8889899BB22B4343F40063C7
:1055B00022F40072234392B20B43002A9BB214BF21
:1055C00000224FF480721343838330BC704700BFC6
:1055D000808980B2704700BF81817047038829B9F4
:1055E00023F400531B041B0C038070479BB243F44D
:1055F00000530380704700BF03889BB243F480537D
:1056000003807047012914BF008B808A80B27047E5
:10561000008A80B2704700BF83889BB21AB923EA20
:105620000101818070471943818070470123090976
:1056300003FA01F1838889B29BB21AB923EA010106
:105640008180704719438180704700BF03891942E8
:105650000CBF002001207047C94389B20181704707
:1056600010B48488008901F00F03012280B202FA8D
:1056700003F31840A4B205D009098A4014420CBFB4
:10568000002001205DF8044B704700BF01F00F01BE
:10569000012303FA01F1C94389B20181704700BFB8
:1056A000044B054900221A605A609A60DA60596119
:1056B000704700BF003C0140FFFF7F00837970B45A
:1056C0002BB31D4B01681E6802794579CC432640F7
:1056D0001E605E6802F1804202F59E3234405C60DA
:1056E00014682143116002689868D14308409860AB
:1056F000D868102D01EA0001D96014D005F180436B
:1057000003F59E3370BC19680A431A607047037929
:10571000016803F1804303F59E3370BC1A6822EAE6
:1057200001021A607047996811439960D9680A4369
:10573000DA6070BC704700BF003C014000230C22BF
:105740004271036003718371704700BF024B1A6995
:1057500010431861704700BF003C0140034B5B6978
:1057600018420CBF00200120704700BF003C0140E0
:10577000014B5861704700BF003C0140034B5B691F
:1057800018420CBF00200120704700BF003C0140C0
:10579000014B5861704700BF003C014008B54FF411
:1057A00000000121FEF72EFE4FF400000021BDE8AD
:1057B0000840FEF727BE00BF294B1A6822F00312EB
:1057C00022F4F85270B41A60196802680A431A6029
:1057D0005A6B22F007025A63596B426811435963AE
:1057E000C66805695AB3012A2ED0022A30D0032A8E
:1057F000446931D036012D022403194B8268996B1C
:105800001143314341EA050222439A638269DA6314
:105810001A6C22F47F5222F03F021A64196CC2699A
:105820000A431A645A6C416A02F040425A64026A9E
:10583000586C024342EA01425A6470BC70474469A2
:1058400036022D042406D8E736022D040024D4E7BE
:105850007601ED020024D0E77601AD02E403CCE747
:1058600000B00240002303604360C36083600361B3
:1058700043618361C361036243627047024B1A68EC
:1058800042F001021A60704700B00240024B1A68F1
:1058900042F004021A60704700B00240054B1A68DB
:1058A00018B922F002021A60704742F002021A6030
:1058B000704700BF00B00240194B0268F0B4DA60D4
:1058C0001969184A21F47F5121F03F0119611C69BF
:1058D000416821431961D9690A40DA61DF69866844
:1058E000C5680469416982693E4346EA051545EA8F
:1058F000042444EA014141EA0262DA611A6A02F0D0
:105900007F421A621D6AC469016A426A2C4344EAF2
:10591000012141EA02421A62826ADA62F0BC7047EF
:1059200000B00240C000FC000023036043608360BD
:10593000C360036143618361C36103624362836245
:10594000704700BF194B0268F0B45A619969184A50
:1059500021F47F5121F03F0199619C694168214305
:105960009961596A0A405A625F6A8668C568046923
:10597000416982693E4346EA051545EA042444EA42
:10598000014141EA02625A629A6A02F07F429A62D7
:105990009D6AC469016A426A2C4344EA012141EAD2
:1059A00002429A62826A1A63F0BC704700B00240F9
:1059B000C000FC000023036043608360C360036198
:1059C00043618361C361036243628362704700BFC6
:1059D000054BDA6918B922F02002DA61704742F00B
:1059E0002002DA61704700BF00B00240054B5A6ADE
:1059F00018B922F020025A62704742F020025A621F
:105A0000704700BF00B00240094BDA6C19B922F0B0
:105A10000102DA64704722F47F4222F00102DA6464
:105A2000DA6C42F0010242EA0020D864704700BFFD
:105A300000B00240014B9864704700BF00B00240C4
:105A4000044B1A6819B922EA000018607047104325
:105A50001860704700B00240034B5B6818420CBFEF
:105A600000200120704700BF00B00240014B986049
:105A7000704700BF00B00240064B5A681B680340E5
:105A800005D012EA10200CBF0020012070471846F4
:105A9000704700BF00B00240014B000A9860704799
:105AA00000B0024008B54FF080600121FEF7DAFC3B
:105AB0004FF080600021BDE80840FEF7D3BC00BF76
:105AC000244B254A254970B49C6814409C609E680C
:105AD00045690469354345EA04449C60DC68144028
