:020000040800F2
:10000000000003203D0C0008810C0008810C000852
:10001000810C0008810C0008810C00080000000021
:10002000000000000000000000000000A94D0008D2
:10003000810C0008000000006D4E0008C54E00084D
:10004000810C0008810C0008810C0008810C00085C
:10005000810C0008810C0008790D0008810C000853
:10006000810C0008810C0008810C0008810C00083C
:10007000810C0008810C0008810C0008810C00082C
:10008000810C0008810C0008810C0008810C00081C
:10009000810C0008810C0008810C0008810C00080C
:1000A000810C0008810C0008810C0008810C0008FC
:1000B000810C0008810C0008810C0008810C0008EC
:1000C00081100008810C0008810C0008810C0008D8
:1000D000810C0008BD0E0008810C0008810C00088E
:1000E000810C0008810C0008810C0008810C0008BC
:1000F000810C0008810C0008810C0008810C0008AC
:10010000810C0008810C0008810C0008810C00089B
:10011000810C0008810C0008810C0008810C00088B
:10012000810C0008810C0008810C0008810C00087B
:10013000810C0008810C0008810C0008810C00086B
:10014000810C0008810C0008810C0008810C00085B
:10015000810C0008810C0008810C0008810C00084B
:10016000810C0008810C0008810C0008810C00083B
:10017000810C0008810C0008810C0008810C00082B
:10018000810C0008810C0008810C0008810C00081B
:10019000810C0008810C0008810C0008810C00080B
:0C01A000810C0008810C0008810C000894
:1001B000F00D010800000020640000206400002011
:1001C000B02F0120844641EA000313F003036DD1F0
:1001D000403A41D351F8043B40F8043B51F8043B0A
:1001E00040F8043B51F8043B40F8043B51F8043B11
:1001F00040F8043B51F8043B40F8043B51F8043B01
:1002000040F8043B51F8043B40F8043B51F8043BF0
:1002100040F8043B51F8043B40F8043B51F8043BE0
:1002200040F8043B51F8043B40F8043B51F8043BD0
:1002300040F8043B51F8043B40F8043B51F8043BC0
:1002400040F8043B51F8043B40F8043B51F8043BB0
:1002500040F8043B403ABDD2303211D351F8043B50
:1002600040F8043B51F8043B40F8043B51F8043B90
:1002700040F8043B51F8043B40F8043B103AEDD2FF
:100280000C3205D351F8043B40F8043B043AF9D250
:10029000043208D0D2071CBF11F8013B00F8013B23
:1002A00001D30B8803806046704700BF082A13D330
:1002B0008B078DD010F003038AD0C3F10403D21A48
:1002C000DB071CBF11F8013B00F8013B80D331F87C
:1002D000023B20F8023B7BE7043AD9D3013A11F8FC
:1002E000013B00F8013BF9D20B7803704B78437067
:1002F0008B7883706046704781F0004102E000BF58
:1003000083F0004330B54FEA41044FEA430594EAD5
:10031000050F08BF90EA020F1FBF54EA000C55EA10
:10032000020C7FEA645C7FEA655C00F0E2804FEAE1
:100330005454D4EB5555B8BF6D420CDD2C4480EAC3
:10034000020281EA030382EA000083EA010180EAF3
:10035000020281EA0303362D88BF30BD11F0004F41
:100360004FEA01314FF4801C4CEA113102D0404277
:1003700061EB410113F0004F4FEA03334CEA1333B2
:1003800002D0524263EB430394EA050F00F0A780CA
:10039000A4F10104D5F1200E0DDB02FA0EFC22FAC5
:1003A00005F2801841F1000103FA0EF2801843FAB9
:1003B00005F359410EE0A5F120050EF1200E012AAA
:1003C00003FA0EFC28BF4CF0020C43FA05F3C018E8
:1003D00051EBE37101F0004507D54FF0000EDCF161
:1003E000000C7EEB00006EEB0101B1F5801F1BD30A
:1003F000B1F5001F0CD349085FEA30004FEA3C0C0E
:1004000004F101044FEA445212F5800F80F09A8003
:10041000BCF1004F08BF5FEA500C50F1000041EB07
:10042000045141EA050130BD5FEA4C0C404141EB0B
:10043000010111F4801FA4F10104E9D191F0000F32
:1004400004BF01460020B1FA81F308BF2033A3F1B5
:100450000B03B3F120020CDA0C3208DD02F1140CAC
:10046000C2F10C0201FA0CF021FA02F10CE002F1E7
:100470001402D8BFC2F1200C01FA02F120FA0CFCE0
:10048000DCBF41EA0C019040E41AA2BF01EB045129
:10049000294330BD6FEA04041F3C1CDA0C340EDC27
:1004A00004F11404C4F1200220FA04F001FA02F36A
:1004B00040EA030021FA04F345EA030130BDC4F128
:1004C0000C04C4F1200220FA02F001FA04F340EA1D
:1004D0000300294630BD21FA04F0294630BD94F0CE
:1004E000000F83F4801306BF81F480110134013DB5
:1004F0004EE77FEA645C18BF7FEA655C29D094EA26
:10050000050F08BF90EA020F05D054EA000C04BFA3
:100510001946104630BD91EA030F1EBF002100208E
:1005200030BD5FEA545C05D14000494128BF41F02D
:10053000004130BD14F580043CBF01F5801130BD91
:1005400001F0004545F0FE4141F470014FF000001C
:1005500030BD7FEA645C1ABF194610467FEA655CCD
:100560001CBF0B46024650EA013406BF52EA03356F
:1005700091EA030F41F4002130BD00BF90F0000F5D
:1005800004BF0021704730B54FF4806404F1320499
:100590004FF000054FF0000150E700BF90F0000F52
:1005A00004BF0021704730B54FF4806404F1320479
:1005B00010F0004548BF40424FF000013EE700BF49
:1005C00042004FEAE2014FEA31014FEA02701FBFD9
:1005D00012F07F4393F07F4F81F06051704792F0AB
:1005E000000F14BF93F07F4F704730B54FF4607425
:1005F00001F0004521F0004120E700BF50EA010270
:1006000008BF704730B54FF000050AE050EA01021C
:1006100008BF704730B511F0004502D5404261EB8C
:1006200041014FF4806404F132045FEA915C3FF4CD
:10063000DCAE4FF003025FEADC0C18BF03325FEA66
:10064000DC0C18BF033202EBDC02C2F1200300FA1B
:1006500003FC20FA02F001FA03FE40EA0E0021FA40
:1006600002F11444C1E600BF70B54FF0FF0C4CF42A
:10067000E06C1CEA11541DBF1CEA135594EA0C0FE0
:1006800095EA0C0F00F0DEF82C4481EA030621EA1B
:100690004C5123EA4C5350EA013518BF52EA033556
:1006A00041F4801143F4801338D0A0FB02CE4FF008
:1006B0000005E1FB02E506F00042E0FB03E54FF038
:1006C0000006E1FB03569CF0000F18BF4EF0010E30
:1006D000A4F1FF04B6F5007F64F5407404D25FEA2C
:1006E0004E0E6D4146EB060642EAC62141EA5551DF
:1006F0004FEAC52040EA5E504FEACE2EB4F1FD0C21
:1007000088BFBCF5E06F1ED8BEF1004F08BF5FEA9E
:10071000500E50F1000041EB045170BD06F0004650
:1007200046EA010140EA020081EA0301B4EB5C04FD
:10073000C2BFD4EB0C0541EA045170BD41F48011F5
:100740004FF0000E013C00F3AB8014F1360FDEBF1A
:10075000002001F0004170BDC4F10004203C35DAF6
:100760000C341BDC04F11404C4F1200500FA05F379
:1007700020FA04F001FA05F240EA020001F000421A
:1007800021F0004110EBD37021FA04F642EB060190
:100790005EEA430E08BF20EAD37070BDC4F10C04BA
:1007A000C4F1200500FA04F320FA05F001FA04F27E
:1007B00040EA020001F0004110EBD37041F100016A
:1007C0005EEA430E08BF20EAD37070BDC4F1200575
:1007D00000FA05F24EEA020E20FA04F301FA05F2DD
:1007E00043EA020321FA04F001F0004121FA04F285
:1007F00020EA020000EBD3705EEA430E08BF20EA55
:10080000D37070BD94F0000F0FD101F0004640008E
:1008100041EB010111F4801F08BF013CF7D041EA10
:10082000060195F0000F18BF704703F00046520014
:1008300043EB030313F4801F08BF013DF7D043EAE5
:100840000603704794EA0C0F0CEA135518BF95EA9B
:100850000C0F0CD050EA410618BF52EA4306D1D122
:1008600081EA030101F000414FF0000070BD50EA41
:10087000410606BF1046194652EA430619D094EACB
:100880000C0F02D150EA013613D195EA0C0F05D1B5
:1008900052EA03361CBF104619460AD181EA030109
:1008A00001F0004141F0FE4141F470014FF00000C1
:1008B00070BD41F0FE4141F4780170BD70B54FF05C
:1008C000FF0C4CF4E06C1CEA11541DBF1CEA1355DC
:1008D00094EA0C0F95EA0C0F00F0A7F8A4EB0504BE
:1008E00081EA030E52EA03354FEA013100F08880B5
:1008F0004FEA03334FF0805545EA131343EA12637E
:100900004FEA022245EA111545EA10654FEA002632
:100910000EF000419D4208BF964244F1FD0404F5EB
:10092000407402D25B084FEA3202B61A65EB030547
:100930005B084FEA32024FF480104FF4002CB6EB04
:10094000020E75EB030E22BFB61A754640EA0C0084
:100950005B084FEA3202B6EB020E75EB030E22BFC4
:10096000B61A754640EA5C005B084FEA3202B6EB05
:10097000020E75EB030E22BFB61A754640EA9C00C4
:100980005B084FEA3202B6EB020E75EB030E22BF94
:10099000B61A754640EADC0055EA060E18D04FEA52
:1009A000051545EA16754FEA06164FEAC30343EAF2
:1009B00052734FEAC2025FEA1C1CC0D111F4801FBF
:1009C0000BD141EA00014FF000004FF0004CB6E7B8
:1009D00011F4801F04BF01430020B4F1FD0C88BF57
:1009E000BCF5E06F3FF6AFAEB5EB030C04BFB6EB62
:1009F000020C5FEA500C50F1000041EB045170BD55
:100A00000EF0004E4EEA113114EB5C04C2BFD4EB81
:100A10000C0541EA045170BD41F480114FF0000E05
:100A2000013C90E645EA060E8DE60CEA135594EA81
:100A30000C0F08BF95EA0C0F3FF43BAF94EA0C0F84
:100A40000AD150EA01347FF434AF95EA0C0F7FF4F9
:100A500025AF104619462CE795EA0C0F06D152EA4D
:100A600003353FF4FDAE1046194622E750EA410631
:100A700018BF52EA43067FF4C5AE50EA41047FF442
:100A80000DAF52EA43057FF4EBAE12E74FF0FF3CA7
:100A900006E000BF4FF0010C02E000BF4FF0010C78
:100AA0004DF804CD4FEA410C7FEA6C5C4FEA430CF1
:100AB00018BF7FEA6C5C1BD001B050EA410C0CBF40
:100AC00052EA430C91EA030F02BF90EA020F0020A2
:100AD000704710F1000F91EA030F58BF994208BF09
:100AE00090422CBFD8176FEAE37040F001007047C6
:100AF0004FEA410C7FEA6C5C02D150EA013C07D11D
:100B00004FEA430C7FEA6C5CD6D152EA033CD3D067
:100B10005DF8040B704700BF8446104662468C4661
:100B20001946634600E000BF01B5FFF7B7FF002894
:100B300048BF10F1000F01BD4DF808EDFFF7F4FFBD
:100B40000CBF012000205DF808FB00BF4DF808ED48
:100B5000FFF7EAFF34BF012000205DF808FB00BF6B
:100B60004DF808EDFFF7E0FF94BF012000205DF88D
:100B700008FB00BF4DF808EDFFF7CEFF94BF012042
:100B800000205DF808FB00BF4DF808EDFFF7C4FF3B
:100B900034BF012000205DF808FB00BF4FEA41028E
:100BA000B2F1E04324BFB3F5001CDCF1FE5C0DD9CB
:100BB00001F0004C4FEAC0024CEA5070B2F1004F15
:100BC00040EB830008BF20F00100704711F0804F18
:100BD00021D113F13872BCBF01F00040704741F4DD
:100BE00080114FEA5252C2F11802C2F1200C10FAE1
:100BF0000CF320FA02F018BF40F001004FEAC123C5
:100C00004FEAD32303FA0CFC40EA0C0023FA02F368
:100C10004FEA4303CCE77FEA625307D150EA01333E
:100C20001EBF4FF0FE4040F44000704701F000400E
:100C300040F0FE4040F40000704700BF002103E098
:100C40000A4B5B584350043109480A4B42189A42F8
:100C5000F6D3094A02E0002342F8043B074B9A42CC
:100C6000F9D301F01BFA00F00DF87047F00D010800
:100C7000000000206400002064000020B02F01204C
:100C8000FEE7000008B500F0CBF800F01DF802E028
:100C90000A4800F049F90120002100F083FD0028F6
:100CA000F6D1074800F040F901F04CF810B90548BA
:100CB00000F03AF902F016FF002008BD40E20008FB
:100CC00068E2000884E2000870B5402086B0012187
:100CD00004F054FD264E0120014604F04FFD00248F
:100CE0000125304602A94FF4C04302938DF80C5001
:100CF0008DF80E408DF80F408DF80D4004F0DEFAAF
:100D00000222032302A91B488DF80F208DF80D3015
:100D100002958DF80C408DF80E4004F0CFFA214674
:100D2000204605F073F8082304A88DF815300495C3
:100D30008DF814408DF8165005F0B8FE0F230622EA
:100D400001A88DF804208DF805308DF806308DF857
:100D5000075004F0A7F930464FF4804104F03CFB03
:100D600030464FF4005104F039FB06B070BD00BFAF
:100D7000001802400000024008B5012005F0E6FE20
:100D800000B908BD012005F0FBFE114A1148137897
:100D9000013303F00103137063B94FF4804104F091
:100DA0001BFB0C484FF4005104F018FBBDE8084051
:100DB00000F0C2BF4FF4005104F00EFB05484FF4A1
:100DC000804104F00BFBBDE8084000F0AFBF00BF5E
:100DD000640000200018024008B50F4B0F481B7834
:100DE00063B94FF4804104F0F7FA0C484FF4005116
:100DF00004F0F4FABDE8084000F09EBF4FF4005143
:100E000004F0EAFA05484FF4804104F0E7FABDE83F
:100E1000084000F08BBF00BF6400002000180240B3
:100E200070B5012086B0224E224D014604F0A6FC8A
:100E30001020012104F0D2FC0024022330464FF49C
:100E4000C06269468DF804308DF8053000928DF847
:100E500006408DF8074004F031FA30460921072298
:100E600004F0CAFA30460A21072204F0C5FA0C231E
:100E70004FF4E132284602A9ADF812300292ADF8E3
:100E80000C40ADF80E40ADF81040ADF8144004F041
:100E9000EDFD2846012104F06FFE284640F2255161
:100EA000012204F043FF044B20225A6006B070BDBB
:100EB000000002400010014000E100E038B5174892
:100EC000202104F051FF0028F9D0144804F08CFED2
:100ED000C0B20D2808D00A2806D0114B114C1A7840
:100EE000511CA054197038BD0D4D0E4C2B780022AA
:100EF000E2542378013C6BB10848802104F034FFB0
:100F00000028F9D014F8011F044804F069FE637842
:100F1000002BF1D100232B7038BD00BF0010014021
:100F20009C0000206800002010B5037873B1441EB7
:100F30000748802104F018FF0028F9D014F8011F99
:100F4000034804F04DFE6378002BF1D110BD00BFC3
:100F50000010014038B51748202104F005FF002893
:100F6000F9D0144804F040FEC0B20D2808D00A2879
:100F700006D0114B114C1A78511CA054197038BD71
:100F80000D4D0E4C2B780022E2542378013C6BB1BE
:100F90000848802104F0E8FE0028F9D014F8011F69
:100FA000044804F01DFE6378002BF1D100232B7060
:100FB00038BD00BF001001409C00002068000020E8
:100FC000F0B5064689B02D4D0F464FF400100121B3
:100FD00004F0F8FB0220012104F0D0FB2846062192
:100FE000042204F009FA28460721042204F004FA36
:100FF00001244022284602A9022302928DF80C30D7
:101000008DF80D408DF80E408DF80F4004F056F924
:1010100002A9284680230025029304F04FF92023DB
:1010200001A88DF804308DF807408DF805508DF833
:10103000065004F037F8304604F014FF08A94FF4C6
:101040008043304641F8107D4BF6FF72ADF81C30FE
:10105000ADF81620ADF81450ADF81850ADF81A5090
:1010600004F036FF304622464FF4807105F0EAF86E
:101070003046214604F0AEFF09B0F0BD0004024046
:1010800008B52648264905F01BF920BB23484FF038
:10109000012105F015F9C8B92048224905F010F9D9
:1010A00038BB1E48204905F00BF9E8B91B481F4919
:1010B00005F006F910BB19481D4905F001F938BBC8
:1010C00016481C4905F0FCF8E8B908BD1A48BDE807
:1010D0000840FFF729BF1948FFF726FF0F481049BE
:1010E000BDE8084005F0FAB81548BDE80840FFF72C
:1010F0001BBF1448BDE80840FFF716BF1248BDE803
:101100000840FFF711BF1148BDE80840FFF70CBFCA
:101110000F48BDE80840FFF707BF00BF005400407C
:10112000000400010002000100080001001000019D
:101130000040000100800001B8E20008ACE20008B5
:10114000D0E20008C4E20008DCE20008FCE200088B
:10115000ECE20008F8B504882A4F0646A4B244F42D
:1011600080744CF25030348038604CF24F3404E0DC
:10117000651E002C34D020462C46B58AED07F7D5E5
:10118000386023B133889BB243F4806333809AB9CB
:1011900001F0FE034CF25031338239604CF24F3390
:1011A00003E05A1E13B319461346B28A9207F8D5C4
:1011B0003960338B0020F8BD012AFAD141F00101DA
:1011C0004CF2503331823B6003E03B68013B3B60B3
:1011D00093B130460C4905F03FF80028F5D0E8E718
:1011E0000A483C60FFF7A0FE0120F8BD08483B60BC
:1011F000FFF79AFE0120F8BD0648FFF795FE012093
:10120000F8BD00BFA0000020020003000CE30008AE
:1012100020E3000834E3000810B5104C4CF25031C4
:1012200021604CF24F3301E019461346828A1206C0
:1012300002D5828A520708D45A1E002BF4D10848DE
:101240002360FFF771FE012010BD038821609BB26F
:1012500043F400730380002010BD00BFA0000020F5
:1012600048E30008F8B5044600884E4D80B24CF2C1
:10127000503340F480702B600E46174620804CF2AD
:101280004F3303E05A1E002B71D01346A18AC807C2
:10129000F8D506F0FE024CF2503322822B6001E0BA
:1012A000013B79D0A28A9107FAD5238B4CF25033B7
:1012B0002B6002E023B1013B5ED0A08A0206F9D583
:1012C0004CF2503327822B60A28A100602D5A28AE4
:1012D000510757D4013BF7D133482B60FFF724FE69
:1012E000228892B242F480724CF2503322802B60FA
:1012F00001E0013B36D0A28AD207FAD546F00106BA
:101300004CF2503326822B6004E02B68013B2B60AB
:10131000002B3DD02046254904F09EFF0028F4D044
:10132000238B238823F480631B041B0C23802288D7
:1013300092B242F400724CF2503322802B6003E0F0
:101340002B68013B2B6043B12046194904F084FF10
:101350000028F5D0208AC0B2F8BD1648FFF7E4FD9A
:101360000120F8BD14482B60FFF7DEFDD9E71248D5
:101370002B60FFF7D9FD99E710482B60FFF7D4FDEC
:101380002B689AE723889BB243F400732380A7E776
:101390000B48FFF7C9FDC4E70A482B60FFF7C4FDFF
:1013A00084E700BFA000002048E30008020003001B
:1013B0004000030070E300080CE3000858E3000855
:1013C00034E3000820E30008028838B592B20D4CDF
:1013D00042F480624CF2503305460280236003E001
:1013E0002368013B236043B12846074904F034FFDA
:1013F0000028F5D0288AC0B238BD0448FFF794FD14
:10140000012038BDA00000204000030084E3000854
:1014100038B50388104C23F480631B041B0C038035
:10142000028892B242F400724CF2503305460280B8
:10143000236003E02368013B236043B1284607494A
:1014400004F00AFF0028F5D0288AC0B238BD04484D
:10145000FFF76AFD012038BDA00000204000030016
:1014600070E300082DE9F047B0F800E0744CBDF8D7
:10147000208005461FFA8EFE4EF4807E4CF25030DE
:1014800099460E461746A5F800E020604CF24F330F
:1014900004E05A1E002B00F0B7801346AA8AD0073A
:1014A000F7D5298889B206F0FE0341F480614CF239
:1014B0005032298022602B824CF24F3304E05A1EB6
:1014C000002B00F0B6801346AA8A9107F7D52B8B24
:1014D0004CF25033236003E02BB1013B00F09980C4
:1014E000A88A0206F8D54CF2503323602F824CF2C2
:1014F0004F3300E01346AA8A100603D5AA8A510783
:1015000000F18D805A1E002BF4D14E482360FFF766
:101510000BFD2A8892B24CF2503342F48072236061
:101520002A804CF24F3303E05A1E002B67D013463B
:10153000AA8AD207F8D52A8892B246F0010642F468
:1015400080624CF250332A8023602E8204E02368AC
:10155000013B2360002B68D028463B4904F07CFE09
:101560000028F4D02B8BB8F1000F67D008F1FF3AB8
:101570000026564522D02A8892B242F480624CF26C
:1015800050332A80236009EB060703E02268013A02
:10159000226072B128462D4904F05EFE0028F5D085
:1015A0002B8ADBB20136F6B246453B70E1D3BDE88B
:1015B000F0872748FFF7B8FC0123F3E72B8823F4D3
:1015C00080631B041B0C2B802A8892B242F40072A9
:1015D0004CF250332A80236009EB060703E02368AE
:1015E000013B236033B12846184904F035FE00283A
:1015F000F5D0D5E71748FFF797FC0123D2E7164847
:101600002360FFF791FCAEE713482360FFF78CFCE3
:101610005EE712482360FFF787FC236860E72B88AA
:101620009BB243F400732B8073E70D48FFF77CFCFB
:1016300099E70C482360FFF777FC49E7BDE8F0879E
:10164000A000002048E3000802000300400003005F
:1016500084E3000870E300080CE3000858E3000886
:1016600034E3000820E300082DE9F04105883A4EF4
:101670000446ADB245F480754CF25030258090465A
:101680001F4630604CF24F3503E06B1E002D44D0F6
:101690001D46A38AD807F8D54CF2503301F0FE015D
:1016A000336021824CF24F3303E05A1E002B4DD0A1
:1016B0001346A28A9207F8D5238B4CF2503333603D
:1016C000194602E021B101392CD0A08A0306F9D5D0
:1016D0004CF25033A4F8108033601A4602E022B175
:1016E000013A25D0A18A0D06F9D54CF25031278256
:1016F00031604CF24F3301E019461346A28A1006BE
:1017000002D5A28A520719D45A1E002BF4D1336095
:101710001248BDE8F041FFF707BC11483560FFF7FC
:1017200003FCCAE70F483160FFF7FEFB3168CCE7E6
:101730000C483260FFF7F8FB3268D3E7238831604A
:101740009BB243F400732380BDE8F0810648336008
:10175000FFF7EAFBB1E700BFA000002048E3000864
:101760000CE3000858E3000820E3000870B50B4DB7
:101770004CF2503304460E462B6002E023B1013B8D
:1017800005D0A28A1206F9D52B60268270BD0448C6
:101790002B60FFF7C9FB2B68F3E700BFA000002018
:1017A00058E3000838B504460D463E483E49FFF769
:1017B00007FC3C48D02100224FF48063FFF7CAFCAD
:1017C00058B93848FFF728FD3648D0217522FFF771
:1017D00049FD682806D0022038BD3248FFF71CFDBD
:1017E000012038BD2F48D0216B220123FFF73CFF99
:1017F00007232C48D0211922FFF736FFD0211C22C5
:101800002848FFF72FFD20F0180040EAC403DBB2A0
:101810002448D0211C22FFF727FFD0211B2221487A
:10182000FFF720FD20F0180040EAC503DBB21D4899
:10183000D0211B22FFF718FF032C07D8DFE804F0A4
:10184000252A2002194B4FF068525A60032D26D8E2
:10185000DFE805F0110C0702144B154A1A6000204E
:1018600038BD124B134A1A60002038BD0F4B124A84
:101870001A60002038BD0D4B104A1A60002038BD98
:101880000A4B4FF066525A60E0E7084B4FF0625245
:101890005A60DBE7054B4FF064525A60D6E70020F0
:1018A00038BD00BF00540040801A060034010020FB
:1018B00090C1793D90C1F93C2D237A3C2D23FA3B10
:1018C00070B584B0062300930F4802ABD0213B22B1
:1018D000FFF7C8FD9DF808609DF809000B4B9DF8C7
:1018E0000A509DF80B109DF80C409DF80D2040EA21
:1018F000062041EA052142EA04221881002059818C
:101900009A8104B070BD00BF005400403401002033
:101910002DE9F04F2DED068BB54BB64E1868DFF86C
:1019200008B3DFF808A3DFF80893DFF80883DFEDDA
:10193000B2AA9FEDB2AAB24F91B001F0B3FFB14885
:1019400000F01CFAB04800F019FAFFF7B9FFB6F939
:101950000A00B6F90830B6F90C4008EE100A09EE94
:10196000103AB8EEC88A08EE904AA84B8BED008A70
:10197000B8EEC99AB1EE486AF8EEE88A16EE100A97
:1019800083ED009ACAED008AFEF71AFE044618EEAF
:10199000900A0D46FEF714FE68EEA88A02460B4632
:1019A00020462946E8EE088A0CF046FB044618EE6D
:1019B000900A0D4600F05EFB06EE100AB1EE499A61
:1019C00089EE066A16EE100AFEF7FAFD0CF06CF9C5
:1019D00085A3D3E90023CDE9020120462946FEF77D
:1019E00043FEFFF7DBF80146864800F0DFF97EA3EF
:1019F000D3E90023DDE90201FEF736FEFFF7CEF85A
:101A00000146814800F0D2F92EE0D7ED006AF4EEED
:101A1000CA6AF1EE10FA40F3CA807A4819EE101A39
:101A200000F0C4F9D7ED007A794B7748F0EEE77A09
:101A3000F4EECA7AF1EE10FAC8BFB1EE488A18EE99
:101A4000102A214600F0B4F9724B18607248FFF773
:101A50006BFA08A9386800F071FA08A8FFF764FA71
:101A60006E48642102F024FA0E2300936C48D021C2
:101A70003B2204ABFFF7F6FC9DF812109DF81120F5
:101A80009DF813309DF810409DF814509DF81500F6
:101A90009DF81CE043EA012342EA04249DF8181053
:101AA0009DF81920738142EA012140EA05209DF842
:101AB0001B209DF81A50B08142EA05229DF81D5066
:101AC00034811BB200B208EE103A08EE900A45EAE3
:101AD0000E2308B224B206EE900A18B209EE904A1C
:101AE00007EE900A14B2B8EEC88A07EE104AF8EE74
:101AF000E77AF8EEE99A454C73824A4BC4ED009AB6
:101B0000B8EEC77AF8EEE66AB1EE486AF8EEE88A0F
:101B1000C3ED007A16EE100A88ED007AC9ED006A6E
:101B200032828BED008ACAED008AF181FEF748FD12
:101B3000044618EE900A0D46FEF742FD68EEA88AAC
:101B400002460B46204629460CF076FA26A3D3E936
:101B50000023FEF789FDE8EE088AFFF71FF809EE7B
:101B6000100A18EE900A00F085FA06EE100AF1EE5F
:101B7000699A89EE866A16EE100AFEF721FD0CF0CE
:101B800093F819A3D3E90023FEF76EFDFFF706F8DB
:101B9000D6ED007A98ED008A99ED007AB4EEEA9AD3
:101BA000F1EE10FA044627EE888A3FF52EAFB4EE28
:101BB000CA9AF1EE10FA07DDD7ED006AF4EEEA6A90
:101BC000F1EE10FA3FF529AF27EE277A0D48104BBA
:101BD00019EE101A17EE102A00F0EAF807EE900A34
:101BE000386021E7AFF3008000000020DCA54C4006
:101BF00030010020340100200000B4C20000B442D3
:101C0000A8000020C0000020F8000020B000002044
:101C1000CDCCCC3DAC0000209CE30008BC000020F3
:101C200000540040A4000020B4000020B8000020B0
:101C3000480100204C01002070B584B006230093B9
:101C40000F4802ABD0214322FFF70CFC9DF808603F
:101C50009DF809000B4B9DF80A509DF80B109DF85C
:101C60000C409DF80D2040EA062041EA052142EA99
:101C70000422D881002019825A8204B070BD00BFAE
:101C800000540040340100202DE9F04F87B00E23AE
:101C900000931A4802ABD0213B22FFF7E3FB9DF8EB
:101CA00010809DF81100164B9DF808B09DF8096052
:101CB0009DF80AA09DF80B509DF80C909DF80D40E2
:101CC0009DF812C09DF813109DF814709DF8152012
:101CD00040EA082046EA0B2645EA0A2544EA092498
:101CE00041EA0C2142EA0722D88100201E815D8151
:101CF0009C8119825A8207B0BDE8F08F00540040E1
:101D00003401002038B5084C014600224FF48063AE
:101D10002046FFF71FFA05462046FFF77DFAD5F16A
:101D2000010038BF002038BD00540040014B186846
:101D300001F046BE30010020014B186801F0B2BD31
:101D40003001002000B585B004230093084A0192B9
:101D5000002302930393074907484FF4007201F0F0
:101D60000BFC431E5842584105B05DF804FB00BF10
:101D700030010020A0E3000811190008002310B46E
:101D80000749084C084A046041608260C3600361EF
:101D90008361C361036243625DF8044B704700BF17
:101DA000A69B443B6F12833A8FC2F53CC1607047DB
:101DB00090ED074A90ED083A90ED005AD0ED095A9F
:101DC000D0ED067AD0ED024AD0ED042A90ED036AF8
:101DD000D0ED011A74EE036A07EE103A75EE666AEA
:101DE000B1EE475AE7EE256AA5EE253AE6EE877A88
:101DF000A5EE254A77EEA44A06EE902A87EEA45A6D
:101E000076EEE23AC3EE246AA3EE876AB7EE002AC2
:101E100032EE452AE7EE215A01EE901A62EE277A59
:101E200031EEC67A22EE044AA5EE076AE6EE872A6C
:101E3000A7EEE63AE4EE665AC0ED0D4A80ED0A5A86
:101E4000C0ED0B6AC0ED053AC0ED042A80ED036ACF
:101E500080ED0C7A80ED083AC0ED067A80ED074AF5
:101E6000C0ED095A16EE100A704700BF406970476E
:101E70000246007828B10020013080B2135C002BAC
:101E8000FAD17047037810B4B3B1002300E01346D1
:101E90005A1C92B2815C0029F9D153B10022C15C75
:101EA000845C81540132591EC45492B28BB29A425E
:101EB000F5D35DF8044B70474FF6FF73EEE700BFB4
:101EC000002870B40646BCBF404200B21A4D002242
:101ED00000E0224685FB0034C317C3EBA40303EBE9
:101EE0008304A0EB440000F1300418B200288C54A5
:101EF00002F10104EDDC002E02DA2D200855941CBD
:101F000000230B550A780AB913E013465A1C92B203
:101F1000885C0028F9D153B10022C85C8C5C8854DD
:101F20000132581ECC5492B283B29A42F5D370BC9F
:101F300070474FF6FF73EFE76766666607EE900A35
:101F4000F5EEC07AF1EE10FA9FED3F7A48BFF1EE60
:101F5000677A27EE877A2DE9F00FBDEEC77A3B4D01
:101F600017EE107A85FB07344FEAE773C3EBA4043E
:101F70004FEAE47385FB04C0C3EBA00085FB003C83
:101F80004FEAE073C3EBAC0385FB03C94FEAE37C84
:101F9000CCEBA90C04EB840A00EB800903EB830B68
:101FA0000CEB8C0CFDEEE77AA7EB4A07A4EB490497
:101FB000A0EB4B00A3EB4C0300F130004FF02E08D8
:101FC00007F1300704F1300403F1300388704CBF8F
:101FD0000126002617EE902A0F704C70CB7081F806
:101FE0000480052000E0204685FB0234D317C3EBB4
:101FF000A40303EB8304A2EB440230320A541A1EFA
:1020000000F10104EFDC16B12D220A55841C0023D7
:102010000B550A780AB914E013465A1C92B2885C30
:102020000028F9D153B10022C85C8C5C885401327D
:10203000581ECC5492B283B29A42F5D3BDE8F00F49
:1020400070474FF6FF73EEE700401C466766666612
:10205000037863B10246002000EB800003EB4000F0
:1020600012F8013F303880B2002BF5D17047184686
:10207000704700BF431003F1FE5307EE900A07EECE
:10208000103A87EE876AF5EE006A36EE077AC7EEF9
:10209000877AE7EE267A17EE900A7047394A3A4B6C
:1020A000D2F88810394841F47001C2F888101968D4
:1020B000002241F0010119609A60196821F08471D1
:1020C00021F4803119605860196882B021F48021B0
:1020D0001960DA60009201921A6842F480321A6044
:1020E0001A4603E0009BB3F5A04F09D0136803F430
:1020F00000330193009B01330093019B002BF1D02F
:10210000214B1B6813F4003318BF01230193019B7B
:10211000012B05D01B4B4FF000629A6002B0704754
:10212000194B1B4A186C1B4940F08050186410680A
:1021300040F4404010609A689A609A6842F4004205
:102140009A609A6842F4A0529A6059601A6842F004
:1021500080721A6019460B680B4A9B01FBD50E4B27
:1021600040F204611960936823F00303936093685D
:1021700043F002039360936803F00C03082BFAD139
:10218000C8E700BF00ED00E0003802401030002436
:1021900000700040194B4007003C0240164B9A6803
:1021A00002F00C02042A24D0082A0AD0134A124B47
:1021B00013489968134BC1F30311415CCA401A607C
:1021C0007047586859685B6842024CBF0E4A0B4A18
:1021D00001F03F01C3F38813B2FBF1F202FB03F2FB
:1021E000054B5B68C3F3014301335B00B2FBF3F2C1
:1021F000DDE7054ADBE700BF003802400024F400B9
:10220000000000201000002000127A002DE9F843A1
:10221000074638200E46904602F0F6FE0446002897
:1022200043D0244B1A683AB325460023012E28BF19
:102230000126A386E662C4F8308045F8047B284670
:1022400000F004FB04F1180000F000FB1A4AE36AF6
:1022500011681A4824618B4288BF1360C6F10206D8
:1022600003EB830300EB8300A6616462294600F060
:10227000F1FA0120BDE8F8831048DFF858901C609F
:102280000F4D00F0D7FA0F4800F0D4FA484600F09E
:10229000D1FA284600F0CEFA0B4800F0CBFA0B4AF0
:1022A0000B4BC2F800901D60BEE74FF0FF30BDE859
:1022B000F88300BF7C010020C8010020A00100209D
:1022C00080010020B4010020680100209C01002052
:1022D000CC01002050010020F8B50E4E0E4C3568A0
:1022E00023680544181D0F4600F0DCFA32682168A7
:1022F000954234BF094A0A4A4D601068043100F023
:10230000B7FA37B1216838461831BDE8F84000F017
:10231000AFBAF8BD940100207C010020CC01002060
:102320009C0100202DE9F84FDFF8A881624DD8F814
:102330000030624EA94603B302F052FDD8F80C30CB
:10234000DC6804F1180000F0ADFA271D002002F04F
:1023500077FD384600F0A6FAE36A2A6803EB8300AB
:10236000934206EB8000394688BFC9F8003000F080
:1023700071FAD8F80030002BDED101F063FC50492F
:10238000504F0B68DFF850B1DFF82C913A68C01A53
:102390004D4B18600346002B46D04B490132581E66
:1023A0003A600860002A5BD0DBF80010DFF8288173
:1023B0000B68002B60D0CB68D3F80CA0DAF80410BF
:1023C0008A4208D258E0DB683A68D3F80CA0DAF801
:1023D0000410914252D80AF1040402F001FD204693
:1023E00000F060FADAF828200AF118000AB100F0CB
:1023F00059FA002002F024FDDAF82C302A6803EBA9
:102400008300934206EB8000214688BFC9F8003064
:1024100000F020FAD8F800301A68002AD3D12A49EF
:102420003A680B68002BB8D12968254802608A00F9
:102430005418224856F8244034BB002937D04A1E8D
:1024400002EB820450F82440DCB9002A31D08A1E05
:1024500002EB820350F823309BB92A60BDE8F88F65
:102460001A4CDBF80030216823600B68DFF86880C5
:10247000CBF80010002B9ED103468CE7124803686E
:1024800089E711462A6092000A4406EB820606F1AB
:10249000080273685B687360934208BF5B680C4A0C
:1024A000D86808BF7360016B036810609847BDE887
:1024B000F88F1A46D1E700BFC8010020A001002014
:1024C000980100209401002064010020CC0100202C
:1024D0007C010020680100209C01002038B5C36801
:1024E000DC6804F11805284600F0DCF929460648A6
:1024F00000F0B0F9054BE06A1B68DB6A984234BF14
:102500000020012038BD00BF680100207C010020B0
:1025100010B51C2002F078FD044620B1002340F8DD
:10252000043B00F087F9204610BD00BF2DE9F843B9
:1025300011F07F4F0C46064617469846DDF820906E
:1025400016D111B902F04CFCFEE702F03BF910B9CC
:10255000B9F1000F0FD101F06DFB3568B8F1000F34
:102560000CD12C420ED087B125EA040434600CE073
:1025700002F036FCFEE702F033FCFEE704EA050356
:102580009C42F0D0B9F1000F04D101F01DFC2846A7
:10259000BDE8F883002F14BF4FF0A0614FF08061B9
:1025A00014BF4FF080730023B8F1000F08BF194625
:1025B0004A462143301D01F0AFFF01F005FC08B988
:1025C00002F002FC02F06EF9830102D520F07F4593
:1025D000DDE702F027FC3568B8F1000F08D12C4286
:1025E00003D017B125EA0404346002F02DFCCEE7D5
:1025F00004EA05039C42F8D1F3E700BF11F07F4FD6
:1026000070B50C46064602D002F0EAFBFEE702F087
:1026100009FC356825EA0404346002F015FC2846FC
:1026200070BD00BF11F07F4F70B50E46054602D059
:1026300002F0D6FBFEE702F0D3FB2C6824EA060684
:102640002E6002F0FDFB204670BD00BFF8B511F012
:102650007F450E46044602D002F0C2FBFEE701F0C1
:10266000E9FA21682069314304F10C0686422160B1
:102670000DD120E0194207D0D20100D51D4341F011
:10268000007102F00BF82168BE420DD0384690E888
:10269000840012F0806F22F07F43EBD001EA030E3A
:1026A0009E45E9D0BE42F1D1ED432940216001F0C1
:1026B0008BFB2068F8BD4FF0FF35F6E712F07F4F37
:1026C000F8B5154604460E461F4619D112B902F058
:1026D00087FBFEE702F076F8A8B9002F37D101F0AA
:1026E000A9FA2368314620461E43FFF7AFFF05EAEB
:1026F0000601A94227D0266801F066FB3046F8BDE6
:1027000002F06EFBFEE701F095FA236831462046A1
:102710001E43FFF79BFF05EA0601A94213D0002FD5
:10272000E9D03A46201D45F0A06101F0F5FE01F028
:102730004BFB08B902F048FB02F0B4F8830109D55D
:1027400020F07F46DAE723680B402360D4E702F0ED
:1027500047FBFEE702F066FB266805EA0603AB428C
:1027600004BF26EA0505256002F06EFBC6E700BF40
:1027700038B5044601F05EFA63687BB1206904F164
:102780000C05A84203D110E02069A8420DD04FF0FB
:10279000007101F083FF6368002BF5D1204602F041
:1027A00061FCBDE8384001F00FBB02F019FBFEE709
:1027B000F8B511F07F450E46044602D002F010FB3A
:1027C000FEE701F037FA21682069314304F10C0675
:1027D000864221600DD120E0194207D0D20100D5F8
:1027E0001D4341F0007101F059FF2168BE420DD038
:1027F000384690E8840012F0806F22F07F43EBD0DF
:1028000001EA030C6345E9D0BE42F1D1ED43294012
:102810002160BDE8F84001F0D7BA4FF0FF352940FC
:102820002160BDE8F84001F0CFBA00BF00B1806977
:10283000704700BF00F108034FF0FF3100228160B4
:1028400080E80C00C3600361704700BF0023036190
:10285000704700BF436830B49A6805688A609C6816
:102860004B606A1C6160996030BC0861026070470F
:1028700030B40D686B1C11D000F1080200E01A465C
:1028800053681C68A542FAD204684B600134996011
:102890008A6051600861046030BC70470269536807
:1028A000F2E700BF42688168036910B491608168F3
:1028B0005C684A601A68844208BF5960013A002186
:1028C00001615DF8044B1A601046704730B405682A
:1028D000034665B1026CC468406814448442DC60FD
:1028E00028BFDD60084630BCD968FDF76BBC30BC42
:1028F000704700BF38B5044602F094FAA36C002B71
:1029000014DD636A93B104F1240507E0A36C013B75
:10291000A364A36C002B09DD636A3BB1284601F078
:102920007FFE0028F2D001F039FFEFE74FF0FF33D0
:10293000A36402F089FA02F075FA636C002B14DDCF
:10294000236993B104F1100507E0636C013B6364F4
:10295000636C002B09DD23693BB1284601F060FE62
:102960000028F2D001F01AFFEFE74FF0FF33636465
:10297000BDE8384002F068BA38B504460D4688B361
:1029800002F050FA206CE26B2368A36002FB00F2B5
:10299000101A1844002113444FF0FF32A163E06085
:1029A00062646360A2648DB923691BB902F04CFABA
:1029B000012038BD04F1100001F032FE0128F5D1EC
:1029C00002F002FA02F040FA012038BD04F11000D2
:1029D000FFF730FF04F12400FFF72CFF02F034FA78
:1029E000012038BD02F0FCF9FEE700BFF8B505464E
:1029F0000E461746002831D0542002F005FB04464D
:102A000060B306FB05F0013002F0FEFA206010B35F
:102A1000E563266402F006FA206CE16B2368A3608C
:102A200001FB00F1081A002218440B444FF0FF315B
:102A3000A26363606164E060A16404F11000FFF7C9
:102A4000F9FE04F12400FFF7F5FE02F0FDF984F829
:102A500050702046F8BD204602F004FB02F0C0F999
:102A6000FEE700BFF8B505460E46002833D0884281
:102A700002D202F0B5F9FEE7542002F0C5FA04468E
:102A800078B3012002F0C0FA206038B30027E56374
:102A9000276402F0C7F9216CE26B2368A36002FB94
:102AA00001F2511A581899184FF0FF32A76361606C
:102AB0006264E060A26404F11000FFF7BBFE04F161
:102AC0002400FFF7B7FE02F0BFF9022384F850306C
:102AD000A6632046F8BD02F083F9FEE7204602F027
:102AE000C1FA02F07DF9FEE72DE9F04385B0044616
:102AF0000E4601921D46002800F0F280002900F0E9
:102B00002F81022D55D001F05DFE18B9019B002BDD
:102B100040F0238102F086F9A26BE36B4FF00008CE
:102B20009A42474679D3022D00F0EC80DDF80490FC
:102B3000B9F1000F00F0E080B8F1000F00F0CC8098
:102B400002F082F901F076F802F06CF9636C01335F
:102B500008BF6764A36C013308BFA76402F074F96F
:102B600002A801A901F0E2FD002840F0BC8002F0BB
:102B700059F9A26BE36B9A4263D002F065F902F057
:102B800051F9A36C002B1ADD636AC3B104F1240868
:102B900007E0A36C013BA364A36C002B0FDD626A0A
:102BA0006AB1404601F03CFD0028F2D001F0F6FD8C
:102BB000EFE7E36B012BA6D002F012F9FEE74FF02E
:102BC000FF33A36402F040F902F02CF9636C002B90
:102BD00014DD236993B104F1100807E0636C013B35
:102BE0006364636C002B09DD22693AB1404601F051
:102BF00017FD0028F2D001F0D1FDEFE74FF0FF33D1
:102C0000636402F021F901F0DFF802F00BF9A26B26
:102C1000E36B9A424FF0010885D2226C002A73D0F0
:102C2000002D40F082803146A068FDF7CBFAA16804
:102C3000236C62680B449342A3606BD32368A36048
:102C400068E004F1100802F0FFF84046019901F035
:102C500021FC02F0E7F8A36C002B14DD636A93B14A
:102C600004F1240907E0A36C013BA364A36C002BCF
:102C700009DD626A3AB1484601F0D2FC0028F2D080
:102C800001F08CFDEFE74FF0FF33A36402F0DCF8B6
:102C900002F0C8F8636C002B12DD236943B90FE022
:102CA000636C013B6364636C002B09DD22693AB1FC
:102CB000404601F0B5FC0028F2D001F06FFDEFE7CF
:102CC0004FF0FF33636402F0BFF801F07DF8002895
:102CD0009BD102F079F898E702A801F017FD2FE7E1
:102CE00002F07EF8FEE72046FFF704FE01F06CF8E4
:102CF000002005B0BDE8F08302F0A6F8484605B014
:102D0000BDE8F083226C82B925681DB9606801F0C6
:102D1000A1FD6560A26B636A0132A2633BBB02F056
:102D200093F8012005B0BDE8F0833146E068FDF777
:102D300049FA236CE26821685B421A448A42E260E5
:102D400002D262681344E360022DE3D1A36B002B2F
:102D5000E0D0A36B013BA363DCE702F041F8FEE7A0
:102D6000036C002B3FF4CDAE02F03AF8FEE704F11D
:102D7000240001F055FC0128D1D102F025F8CEE75E
:102D800070B50646542002F03FF90446E8B100252C
:102D90004FF0FF3301228563C263436480F85060C3
:102DA0008364456005608560C56005641030FFF789
:102DB00041FD04F12400FFF73DFD204629462A4647
:102DC0002B46FFF791FE204670BD02F009F8FEE7A2
:102DD00038B5044630B1456801F0EEFC854204D0B8
:102DE000002038BD01F0FCFFFEE7E1680139E16039
:102DF00009B1012038BD20460A460B46FFF774FE94
:102E0000012038BD2DE9F04104460E4690461D468E
:102E100000282ED000297FD0022D0FD002F0D2F84A
:102E200001F0DEFFA26BE36B934207460CD800244F
:102E3000384602F005F82046BDE8F081E36B012B2F
:102E400032D001F0CDFFFEE7226CAAB92568002D33
:102E50005DD0A36B0133A363A36C01331BD0A36CC0
:102E60000133A3643846012401F0EAFF2046BDE89F
:102E7000F08101F0B5FFFEE7FDB93146A068FDF72E
:102E8000A1F9A168236C62680B449342A360E0D36C
:102E90002368A360DDE7636A3BBB3846012401F089
:102EA000CFFF2046BDE8F08102F08CF801F098FFDA
:102EB000A26B226C0746002AC8D03146E068FDF7B5
:102EC00081F9236CE26821685B421A448A42E2601D
:102ED00002D262681344E360022DBAD1A36B002BC7
:102EE000B7D0A36B013BA363B3E704F1240001F067
:102EF00097FB0028D1D00124B8F1000F98D03846B4
:102F0000C8F8004001F09CFF2046BDE8F0816068F1
:102F100001F0A0FC65609CE7036C002B3FF47CAFE4
:102F200001F05EFFFEE700BF2DE9F04385B00446E7
:102F30000D4601921F46002800F0EB80002900F0AA
:102F4000198101F03FFC18B9019B002B40F00F8163
:102F500001F068FFA36B4FF000084646002B79D1C3
:102F6000DDF80490B9F1000F00F0E780B8F1000F30
:102F700000F0CB8001F068FF00F05CFE01F052FF32
:102F8000636C013308BF6664A36C013308BFA66499
:102F900001F05AFF02A801A901F0C8FB002840F087
:102FA000C38001F03FFFA36B002B6BD101F04CFFFE
:102FB0002368002B00F0B08004F1240840460199FA
:102FC00001F068FA01F02EFFA36C002B12DD636A9A
:102FD00043B90FE0A36C013BA364A36C002B09DD94
:102FE000626A3AB1404601F01BFB0028F2D001F0C2
:102FF000D5FBEFE74FF0FF33A36401F025FF01F0AD
:1030000011FF636C002B14DD236993B104F11008E8
:1030100007E0626C013A6264626C002A09DD226991
:103020003AB1404601F0FCFA0028F2D001F0B6FBBC
:10303000EFE74FF0FF33636401F006FF00F0C4FEDA
:1030400008B901F0C1FE01F0EDFEA36B4FF00108DD
:10305000002B85D029462046E568FFF737FC002F76
:1030600071D1A26B2368013AA26313B901F0A4FBEA
:1030700060602369002B73D101F0E6FE012005B0EA
:10308000BDE8F08301F0E0FE01F0CCFEA36C002B64
:1030900014DD636A93B104F1240807E0A36C013BDB
:1030A000A364A36C002B09DD636A3BB1404601F0C9
:1030B000B7FA0028F2D001F071FBEFE74FF0FF33D1
:1030C000A36401F0C1FE01F0ADFE636C002B14DDC2
:1030D000236993B104F1100807E0636C013B63645A
:1030E000636C002B09DD23693BB1404601F098FA7F
:1030F0000028F2D001F052FBEFE74FF0FF3363649A
:1031000001F0A2FE00F060FE9DE702A801F0FEFAC9
:1031100030E701F065FEFEE701F084FE606801F033
:1031200061FB01F091FE47E72046FFF7E3FB00F06B
:103130004BFE002005B0BDE8F08301F085FE484657
:1031400005B0BDE8F083636AE560002B94D004F11C
:10315000240001F065FA00288ED001F035FE8BE7DF
:1031600004F1100001F05CFA012885D1F5E701F0C7
:1031700037FEFEE7036C002B3FF4E3AE01F030FEB8
:10318000FEE700BF70B504460D46B0B1466801F0D9
:1031900013FB86420CD000212A460B462046FFF73F
:1031A000C3FE012800D070BDE3680133E36070BD49
:1031B000E3680133E360012070BD01F011FEFEE71A
:1031C000F8B504460E46154668B111B301F0FAFE93
:1031D00001F006FEA36B074643B91C46384601F0D2
:1031E0002FFE2046F8BD01F0FBFDFEE731462046EC
:1031F000FFF76CFBA36B013BA363636C01330ED041
:10320000636C013363643846012401F019FE2046E3
:10321000F8BD036C002BD9D001F0E2FDFEE7236975
:10322000002BF0D004F1100001F0FAF90028EAD0E8
:10323000002DE8D0012438462C6001F001FE204624
:10324000F8BD00BFF8B504460E4660B1D1B101F03B
:10325000B9FE01F0C5FDA56B07463DB9384601F042
:10326000EFFD2846F8BD01F0BBFDFEE731462046E4
:10327000E6680125FFF72AFB3846E66001F0E0FD2D
:103280002846F8BD036C002BE1D001F0A9FDFEE754
:1032900010B5044630B101F0C5FDA46B01F0D4FDBA
:1032A000204610BD01F09CFDFEE700BF10B50446AE
:1032B00040B101F0B7FDA36BE46BE41A01F0C4FD6B
:1032C000204610BD01F08CFDFEE700BF08B508B137
:1032D000806B08BD01F084FDFEE700BF10B5044619
:1032E00068B3224B5A6890422CD0DA6890422ED0B4
:1032F0005A69904230D0DA6990421BD05A6A9042A3
:1033000031D0DA6A90422CD05A6B90420DD0DA6BF1
:10331000904208BF072209D0206808B101F0A2FE40
:103320002046BDE8104001F09DBE0622002143F872
:103330003210F1E70322002143F83210ECE701F0EC
:103340004FFDFEE70022002143F83210E4E701229E
:10335000002143F83210DFE70222002143F8321047
:10336000DAE70522E2E70422E0E700BFD00100200F
:10337000C06C7047C164704790F85000704700BF40
:1033800008B528B1806BD0F1010038BF002008BD1E
:1033900001F026FDFEE700BF08B528B1826BC06BC7
:1033A000131A5842584108BD01F01AFDFEE700BF4C
:1033B000144B1A6810B48AB19A68BAB11A69BAB1D2
:1033C0009A69BAB11A6ABAB19A6ABAB11A6B22B1D9
:1033D0009A6BAAB15DF8044B7047062203EBC20456
:1033E00043F8321060605DF8044B70470122F5E746
:1033F0000222F3E70322F1E70422EFE70522EDE7DB
:103400000722EBE7D0010020164B5A6882421CD0FD
:10341000DA6882421BD05A6982421AD0DA69824243
:1034200019D05A6A824218D0DA6A824217D05A6B8F
:10343000824205D0DA6B824208BF072201D0704772
:103440000622002143F8321070470022F9E70122DA
:10345000F7E70222F5E70322F3E70422F1E705226A
:10346000EFE700BFD001002038B504460D4601F05B
:10347000D9FC636C013304BF00236364A36C013384
:1034800004BF0023A36401F0DFFCA36B23B929462A
:1034900004F1240001F08EF801F0C4FCA36C002BB1
:1034A00014DD636A93B104F1240507E0A36C013BCA
:1034B000A364A36C002B09DD636A3BB1284601F0CD
:1034C000AFF80028F2D001F069F9EFE74FF0FF33D1
:1034D000A36401F0B9FC01F0A5FC636C002B14DDC2
:1034E000236993B104F1100507E0636C013B636449
:1034F000636C002B09DD23693BB1284601F090F88D
:103500000028F2D001F04AF9EFE74FF0FF3363648F
:10351000BDE8384001F098BC38B50F4D002428199B
:103520001434FFF787F9642CF9D10C4D0C4C284664
:10353000FFF780F92046FFF77DF90A48FFF77AF98F
:103540000948FFF777F90948FFF774F9084A094B6A
:1035500015601C6038BD00BF30020020C40200208E
:10356000D8020020A00200201C020020F00200204F
:1035700010020020BC0200202DE9F84F0AAE0746D9
:103580000D4691469A4696E84009002800F09B8037
:10359000042E02D901F024FCFEE74C2001F034FD9A
:1035A0000446002800F0AB80BBF1000F00F09B80C8
:1035B000C0F830B058464FEA890B5A46A5210AF0A8
:1035C00027FB2A78236B84F8342009F1804909F11C
:1035D000FF392A7803EB890323F0070B2AB36B78B2
:1035E00084F835306B7803B3AB7884F83630AB7839
:1035F000DBB1EB7884F83730EB78B3B12B7984F812
:1036000038302B798BB16B7984F839306B7963B1B1
:10361000AB7984F83A30AB793BB1EB7984F83B3045
:10362000EB7913B12B7A84F83C30002304F10409C0
:1036300084F83D304846E662A664FFF707F904F1D6
:103640001800FFF703F9C6F10503246164625846C8
:1036500039465246A36101F091FB2060B8F1000F9A
:1036600001D0C8F8004001F0DDFB274B274D1A6858
:1036700001321A602A6872B3254F3B6823B92B6860
:10368000DB6A9E4228BF2C602248234A0168E36A15
:10369000D2F800E0013173450160204888BF136013
:1036A00003EB830300EB830021644946FFF7D2F864
:1036B00001F0CAFB3B681BB12B68DB6A9E4205D850
:1036C0000120BDE8F88F01F08BFBFEE701F07CFBE9
:1036D0000120BDE8F88F2C601B68012B01D1FFF79A
:1036E0001BFF0B4FD0E74FEA890B584601F08CFCCB
:1036F000206300287FF461AF204601F0B3FC4FF057
:10370000FF30BDE8F88F00BF980200209C02002027
:1037100014020020C0020020040300203002002018
:1037200038B5044601F07EFB002C38D0251D284614
:10373000FFF7B8F8A36A1BB104F11800FFF7B2F85D
:1037400029461848FFF786F8174B184A1968106879
:10375000013101301960106001F076FB144B1B68D9
:1037600093B1144B1B689C420FD0134B1A6812681C
:1037700022B9124B4FF0FF321A6038BD1A680F4B56
:10378000D268D26852681A6038BD0D4B1B6813B1FD
:1037900001F026FBFEE7BDE8384001F015BB054B04
:1037A0001C68C3E71C020020C00200201802002091
:1037B000140200209C0200201002002014000020AF
:1037C0009402002010B5044601F02CFB24B1E46AF9
:1037D00001F03AFB204610BD034B1C68E46A01F07F
:1037E00033FB204610BD00BF9C0200200429F8B521
:1037F0000D4604462FD801F015FB002C2ED0A26CEC
:1038000095421FD0244B21D919688C4241D01B68A6
:10381000DE6AB54234BF00260126E36A1F4FA56465
:103820009A42A26908BFE56203EB8303002A62693A
:10383000A8BFC5F1050507EB8303A8BFA5619A42A0
:1038400015D076B9BDE8F84001F0FEBA1E68A31B9A
:103850005E425E41E1E701F0C3FAFEE70E4B1C68F1
:10386000CDE701F0B1FABDE8F84001F0EDBA251D51
:103870002846FFF717F80A4AE36A11688B4200D915
:10388000136003EB830007EB80002946FEF7E2FF9D
:10389000D7E70026C1E700BF9C02002030020020CD
:1038A00004030020F8B504463B4D01F0BBFA002CA0
:1038B0002FD0261D3046FEF7F5FFA36A1BB104F199
:1038C0001800FEF7EFFF354F31463846FEF7C2FFCE
:1038D00001F0BAFA2B68304A9C42314B1B6811D078
:1038E00003B9F8BD2F4B1A68126822B92E4B4FF05E
:1038F000FF321A60F8BD1A682B4BD268D268526842
:103900001A60F8BD3BB1294B1B685BB101F068FA46
:10391000FEE72C68CDE7264938680968884205D15A
:103920001360F8BDBDE8F84001F04EBA1F4B1A68AD
:10393000002A2AD11F49204B0A601A681F4902EB4E
:10394000820251F822207AB91A68184612B920E08A
:103950000268F2B11A68013A1A601A6802EB820230
:1039600051F82220002AF3D01A6802EB820201EB00
:10397000820202F1080153685B6853608B4201D1F7
:103980005B685360DB682B60F8BD0A4B01221A604C
:10399000F8BD01F025FAFEE79C020020F0020020AD
:1039A00014020020100200201400002094020020C5
:1039B00098020020080300200403002030020020A9
:1039C00070B5044670B1194D2B68984209D001F0CA
:1039D00029FA174A6369934207D0BDE8704001F0A5
:1039E00033BA70BD01F0FCF9FEE7A36A114A9342B5
:1039F000F3D0002BF1D1261D3046FEF753FF0E4ABF
:103A0000E36A11680D488B4288BF136003EB8303A0
:103A100000EB83003146FEF71DFF2B68E26ADB6A8C
:103A20009A42DAD301F0D0F9D7E700BF9C02002018
:103A3000F0020020A0020020040300203002002039
:103A4000F8B5044670B101F0BDFA01F0C9F91F4A9A
:103A500063699342074608D03846002501F0F0F923
:103A60002846F8BD01F0BCF9FEE7A56A1848854272
:103A7000F2D0002DF0D1174A1268F2B9164AE36A63
:103A80001268D56A261DAB42304634BF0025012599
:103A9000FEF708FF114AE36A116811488B4288BF9C
:103AA000136003EB830300EB83003146FEF7D2FE85
:103AB000384601F0C5F92846F8BD04F11801FEF7B3
:103AC000C9FE384601F0BCF92846F8BDF0020020D6
:103AD000A0020020940200209C0200200403002089
:103AE000300200202DE9F0414C2001F08DFA04460F
:103AF000002870D04FF4027001F086FA206300288D
:103B00006ED0A5214FF402720AF082F8236B3B4D70
:103B10004FF0490E00264C2145224420271D03F575
:103B2000017384F834E084F8361084F8372084F880
:103B3000350084F83860384684F83D60E662A66453
:103B400023F00708FEF782FE04F11800FEF77EFE60
:103B500005233246A3612A4924614046646201F08C
:103B60000DF9206001F05EF9264B1A6801321A60E7
:103B70002A68002A39D0244E33681BB92B68DB6AC7
:103B800003B92C602148224A0168E36AD2F800E0B8
:103B90000131734501601F4888BF136003EB830345
:103BA00000EB830021643946FEF754FE01F04CF926
:103BB000336803B12B6800F081FE0128044609D167
:103BC00001F00EF9144B34600022BDE8F0411A6098
:103BD00001F0A2B90CB1BDE8F08101F001F9FEE7F6
:103BE0002046BDE8F04101F03DBA2C601B68012B76
:103BF00001D1FFF791FC044EC4E700BF9C020020F6
:103C0000E13F00089802002014020020C0020020BA
:103C10000403002030020020B802002008B501F0A3
:103C2000DFF8034B00221A60BDE8084001F0EEB84F
:103C300014020020024B1A6801321A60704700BF5C
:103C40009402002010B501F0EDF8034B1C6801F060
:103C5000FBF8204610BD00BFB802002010B501F0EF
:103C6000B1F901F0BDF8034B1C6801F0E9F82046FA
:103C700010BD00BFB8020020014B1868704700BF9C
:103C8000980200202DE9F84F444B1B68002B50D1BF
:103C9000434B1A6801321A601F68002F56D0DFF8B4
:103CA00020B1DBF800203F4D3F4E974255D3DFF85F
:103CB000149100242AE03D4B1A68D268D2F80C8097
:103CC000D8F8041008F1040A8F4250465CD3FEF77E
:103CD000E9FDD8F8281008F1180009B1FEF7E2FD57
:103CE000D8F82C30D9F8002003EB8300934205EB81
:103CF0008000514688BFC9F80030FEF7ABFD306840
:103D0000D8F82C10C26A914228BF0124274B1A68A8
:103D10001268002ACFD14FF0FF32CBF80020336871
:103D2000DB6A03EB830355F82330022B28BF012401
:103D300004E01F4B1A6801321A6000241D4B1B68F7
:103D4000002B18BF01242046BDE8F88F174B1A68D6
:103D5000126822B101F044F8FEE70024DFE71649BB
:103D60001868164A0C681C600860116801311160FF
:103D70001A6812685AB11A68DFF844B0D268D2687B
:103D80005268CBF800208CE7CBF80010C7E7DFF8CB
:103D900030B04FF0FF32CBF8002082E794020020D1
:103DA000B8020020300200209C02002010020020F7
:103DB000EC02002008030020BC020020B402002016
:103DC00014000020040300202DE9F84F304C236834
:103DD00013B901F005F8FEE701F024F82368013B70
:103DE00023602368002B36D12A4B1B68002B32D06E
:103DF000DFF8B0B0284D294EDFF8ACA0DFF8AC906A
:103E0000D8461EE0D8F80C30DC68271D04F11800F5
:103E1000FEF748FD3846FEF745FDE36A326803EBDE
:103E20008300934239460AEB800088BF3360FEF777
:103E300011FDD9F80030E26ADB6A9A4224BF0123FF
:103E40002B60DBF80030002BDCD1154C236843B924
:103E50002C68012C14D0002400F0F6FF2046BDE8A9
:103E6000F88F2368002BF3D00126FFF70BFF00B17A
:103E70002E602368013B23602368002BF5D1E7E720
:103E800000F0A2FF00F0E0FF2046BDE8F88F00BF81
:103E90009402002098020020080300200403002060
:103EA000EC020020A0020020300200209C02002032
:103EB00070B500283ED0002939D0234A1368002B62
:103EC00032D11468214E03680134146032689A427A
:103ED00003EB01041DD3A34201D8A2421BD21C4D07
:103EE000046028680430FEF7DDFC2A6833685460FB
:103EF0009C4222D3174B186829680431FEF7B8FC9E
:103F0000154B1A68944238BF1C60FFF75DFF38B14B
:103F100070BDA342E1D80460FFF756FF0028F7D137
:103F2000BDE8704000F050BF00F05AFFFEE700F01F
:103F300057FFFEE700F054FFFEE7084B18682968BA
:103F40000431FEF795FCE0E794020020B80200205F
:103F50009C0200201002002014000020BC0200205F
:103F600070B5024618B9BDE8704000F02DBF164B81
:103F70001968F9B91968154E154D01311960346881
:103F8000286804301444FEF78DFC2A6833685460B6
:103F90009C4212D30F4B186829680431FEF768FC65
:103FA0000D4B1A68944238BF1C60FFF70DFF0028C4
:103FB000D9D070BD00F014FFFEE7084B18682968DF
:103FC0000431FEF755FCF0E794020020B80200200F
:103FD0009C0200201002002014000020BC020020DF
:103FE0001C4E1D4D1D4CDFF87880DFF878902DE9D0
:103FF0008848B24606E02368376801332360FFF73C
:10400000E3FE4FB92B68002BF5D1D9F80030012B16
:10401000F8D900F0D9FEF5E700F004FFDAF80C302B
:10402000D3F80CB00BF10400FEF73CFCD8F80030DC
:10403000094A013BC8F800301368013B136000F0E7
:1040400003FFDBF8300001F00DF8584601F00AF8E4
:10405000D8E700BF1C0200201802002094020020B4
:104060009802002030020020734B2DE9F04F1D68AC
:10407000724C01351D60236885B08B42019002921D
:1040800000F282806E4A4FF00009A2F10C0A02F1A0
:104090005806C8464FF0010C56F8080C68BB143E91
:1040A00056458144F8D1674B1E683768002F40F0B1
:1040B000D180654BD3F800E0DEF80060B944002EF3
:1040C00040F00C81DFF888E1DEF80070B144002F89
:1040D00040F04B81DFF874E1DEF8006007EB090A7D
:1040E000002E58D1029A56440AB100231360FFF7FC
:1040F0006BFE304605B0BDE8F08F56F8043C5968B9
:104100004F4B46F8041CB14203F1580204BF7168DA
:1041100046F8041CF71A1744019ACD6802EB4913BC
:104120000020496846F8041CB14204BF57F8541CEB
:1041300046F8041CCA681A6002F134045C60146C0E
:104140009C6083F80CC0D46A1C61946C5C61C3F8F9
:104150001880146B94F800E0BEF1A50F12D1A646AA
:1041600000241EF801BFBBF1A50F04F10104F8D033
:10417000C4F38F0495429C8300F1010003F12003F6
:10418000CFD18CE70024F5E7FFF71EFE002630466E
:1041900005B0BDE8F08FDEF804305D68CEF804505D
:1041A0000EF1080C654508BFDEF80C50DEF80C3047
:1041B000D5F80C906D680393019BCEF8045000264F
:1041C000654503EB4A1037464FF003084FF0020BEA
:1041D0002CD0EC68046004F134034360236C8360EA
:1041E00080F80C80E36A0361A36A0BB180F80CB01D
:1041F000A36C43618761226B1378A52B4FF00003FA
:1042000007D112F8011FA52903F10103F9D0C3F367
:104210008F03A145838306F1010600F120003FF4DE
:1042200061AF6D68CEF804506545D2D1039A074B53
:1042300015465A60CDE700BF940200209802002086
:104240003002002010020020BC020020F0020020FA
:104250001C02002073685D68756006F1080E7545E4
:1042600008BF6D68019BD5F80CA00027B84603EB8A
:1042700049104FF0020C6D687560AE4504BFF568DB
:104280007560EA68026002F134034360136C836076
:1042900080F80CC0D36A0361936C4361C0F8188046
:1042A000116B0B78A52B4FF0000307D111F8014FCC
:1042B000A52C03F10103F9D0C3F38F039245838347
:1042C00007F1010700F12000D5D14D4BD3F800E0F4
:1042D000DEF80060B944002E3FF4F4AEDEF804309E
:1042E0005D68CEF804500EF1080C654508BF6D6896
:1042F000019BD5F80CA00026374603EB49104FF080
:1043000002086D68CEF80450AC4504BFDEF80C50CE
:10431000CEF80450EA68026002F134034360136C83
:10432000836080F80C80D36A0361936C436187617A
:10433000116B0B78A52B4FF0000307D111F8014F3B
:10434000A52C03F10103F9D0C3F38F0392458383B6
:1043500006F1010600F12000D3D1DFF8A8E0DEF875
:104360000070B144002F3FF4B5AEDEF80430DEF843
:104370000CB05D68CEF804500EF1080C654508BF1E
:10438000DEF80C50019BD5F80CA06D68CEF80450F7
:10439000002765453E4603EB49104FF00408594697
:1043A00029D0EB68036003F1340242601A6C82602A
:1043B00080F80C80DA6A02619A6C426186611C6B3B
:1043C0002278A52A4FF0000208D114F801BFBBF1F2
:1043D000A50F02F10102F8D0C2F38F029A45828341
:1043E00007F1010700F120003FF474AE6D68CEF8CC
:1043F00004506545D5D1034A0D465160D1E700BF51
:10440000BC0200201C02002008B51D4B1A684ABBE4
:104410001C491D4B0A601A681C4902EB820251F8C4
:1044200022207AB91A68184612B91FE00268EAB168
:104430001A68013A1A601A6802EB820251F82220C7
:10444000002AF3D01A6802EB820201EB820202F129
:10445000080153685B6853608B420AD00C4ADB68E2
:10446000136008BD074B01221A6008BD00F0B8FCBC
:10447000FEE75B685360064ADB68136008BD00BF57
:1044800094020020080300200403002030020020D2
:104490009C02002038B50D4600282DD0184C21680C
:1044A0001831FEF7E5F920680430FEF7FBF96B1CC4
:1044B0001BD0144B196822681B680D449D4255603F
:1044C0000BD3114B186821680431FEF7D1F90F4B5B
:1044D0001A68954238BF1D6038BD0D4B18682168B9
:1044E000BDE838400431FEF7C3B9216809480431FA
:1044F000BDE83840FEF7AEB900F072FCFEE700BF41
:104500009C020020B80200201002002014000020AD
:10451000BC020020F002002038B5154648B31E4BFF
:104520001B6813B900F05CFCFEE71C4C2268236892
:1045300041F00041916103F11801FEF78BF9206809
:104540000430FEF7AFF96B1C1ED0154B19682268BA
:104550001B680D449D4255600ED3124B18682168AC
:104560000431FEF785F9104B1A68954238BF1D607B
:1045700038BD00F035FCFEE70C4B18682168BDE83B
:1045800038400431FEF774B9216809480431BDE8A8
:104590003840FEF75FB900BF940200209C02002063
:1045A000B80200201002002014000020BC020020ED
:1045B000F002002038B50D46E0B1144C21681831E6
:1045C000FEF748F920680430FEF76CF9104B1968C3
:1045D00022681B680D449D4255600ED30D4B186830
:1045E00021680431FEF744F90B4B1A68954238BF35
:1045F0001D6038BD00F0F4FBFEE7084B1868216829
:10460000BDE838400431FEF733B900BF9C020020FA
:10461000B80200201002002014000020BC0200207C
:1046200038B5C368DC68002C29D004F11805284689
:10463000FEF738F9134B1B68E3B9251D2846FEF732
:1046400031F9114AE36A116810488B4288BF136040
:1046500003EB8303294600EB8300FEF7FBF80C4BCA
:10466000E26A1B68DB6A9A4283BF0A4B012018602A
:10467000002038BD29460848FEF7ECF8EFE700F0C7
:10468000AFFBFEE79402002004030020300200206C
:104690009C02002008030020A002002038B5164B21
:1046A0001A681AB3C46841F0004202600CB3251DB9
:1046B000FEF7F8F82846FEF7F5F8104AE36A1168A5
:1046C0000F488B4288BF136003EB830300EB83002A
:1046D0002946FEF7BFF80B4BE26A1B68DB6A9A4279
:1046E00083BF094B01201860002038BD00F078FB23
:1046F000FEE700F075FBFEE79402002004030020B3
:10470000300200209C0200200803002008B530B1D0
:10471000044A054B12681B6880E80C0008BD00F0D5
:104720005FFBFEE7B4020020B8020020F8B50446A3
:104730000D4658B339B300F075FB296815484B1C7A
:1047400002681BD0144E23683768BB42636801D0EF
:104750009A420ED2D71AB9420BD98A1A1344316839
:1047600002682B60002584E8060000F06DFB2846F7
:10477000F8BD012500F068FB2846F8BD002500F0D3
:1047800063FB2846F8BD00F02BFBFEE700F028FB9A
:10479000FEE700BFB8020020B4020020014B012256
:1047A0001A6070470803002000B1406C704700BFDA
:1047B00000B14164704700BF014B1868704700BFEB
:1047C0009C020020054B1B6833B1054B1B68002B76
:1047D00014BF0020022070470120704714020020FF
:1047E00094020020F8B50446C0B1174DC36A2A6888
:1047F000D26A934212D28269002A04DB2A68D26A02
:10480000C2F105028261114E626903EB830306EB7C
:1048100083039A4203D02B68DB6AE362F8BD271D4D
:104820003846FEF73FF82B68094ADB6A1168E362F5
:104830008B4200D9136003EB830006EB80003946FE
:10484000BDE8F840FEF706B89C02002030020020C8
:104850000403002038B50446F0B1C26A836C9A4262
:104860001AD0051D2846FEF71DF8A269A36C0B4857
:10487000E362002AA4BFC3F10502A261084A1168DD
:104880008B4288BF136003EB8303294600EB830050
:10489000BDE83840FDF7DEBF38BD00BF3002002064
:1048A00004030020044B19681A681B688869DB6AD6
:1048B000C3F10503936170479C020020F0B51D4CC5
:1048C00085B000F0AFFA266896B100F0BDFA236813
:1048D0004BB3002302228DE80C0002930393164889
:1048E00016494FF48272FEF747FEE0B105B0F0BD05
:1048F000134F144D3846FDF79DFF2846FDF79AFFEC
:10490000114A124B17600A2032460C211D60FEF737
:104910006DF8206050B10E49FEF74AFD00F094FAA0
:104920002368002BD5D100F05BFAFEE700F058FABF
:10493000FEE700BF3C030020554A0008B4E300082E
:1049400010030020240300200C030020400300205B
:10495000ACE300082DE9F04F0D4683B08346924644
:104960001F46E9B12C2000F04FFB0446A0B11D4EBC
:1049700000F058FAD6F80090B9F1000F13D000F00B
:1049800063FA0C9BC4F800B0A561C4F81CA02762B0
:104990006362201DFDF75AFF204603B0BDE8F08F8B
:1049A00000F01EFAFEE7104BDFF84880019318462E
:1049B000FDF740FF4046FDF73DFF0C49019BDFF846
:1049C00038E00B604A460A200C21CEF80080FEF742
:1049D0000DF8306018B10649FEF7EAFCCFE700F0A9
:1049E000FFF9FEE73C030020100300200C03002029
:1049F000ACE30008240300204003002030B5144D30
:104A00002C6885B004B305290191029203900BDC58
:104A1000FFF7D8FE02280FD000222868134601A90C
:104A2000FEF762F805B030BD1A46204601A9002302
:104A3000FEF7E8F905B030BD2868089A01A90023FF
:104A4000FEF752F805B030BD204605B030BD00BFBE
:104A50003C0300202DE9F04FA44DA54CDFF89482D3
:104A600089B02B681E68D6F1010638BF0026002EDB
:104A700063D1DB68D3F80090FFF7DCF8FFF7E2F8CA
:104A8000D8F800309B4A9842074659D3106016B9AF
:104A9000B94540F29180C7EB09012068FEF7E4FCBC
:104AA000FFF792F9002800F0848000221346206866
:104AB00002A9FEF739FA0028D3D0029B002BF4DBC1
:104AC000049F7B6913B1381DFDF7ECFEFFF7BAF8C0
:104AD000D8F800309842814624D3029BC8F8009051
:104AE000092BE2D8012202FA03F313F4047F40F009
:104AF000EC8013F0C70F40F0C7809B06D5D5384631
:104B000000F0B0FAD1E7DB68DE68D3F800B006F158
:104B1000040A5046FDF7C6FE736A30469847F369AB
:104B2000012B3AD02B681A68002AECD172490A6826
:104B30006E490A60704A1360CFE74FF000099BE7A7
:104B40004FF000090EE0DB68DE68D3F800B006F134
:104B5000040A5046FDF7A6FE736A30469847F3698B
:104B6000012B0ED02B681A68002AECD16249C8F8D4
:104B700000700A685D490A605F4A1360FFF724F914
:104B800093E7B3695B445B452AD958497360086869
:104B900036615146FDF76CFEE4E7B3695B445B4563
:104BA00033D9524A7360366110685146FDF760FE92
:104BB000B8E700F009F978E7FFF706F92B68DB683A
:104BC000D3F80CA00AF1040B5846FDF76BFEDAF897
:104BD0001C30012B2FD0DAF824305046984764E778
:104BE00023687BB1CDF81490CDF818B00796FFF785
:104BF000E9FD3F4900220868134605A9FDF774FF47
:104C00000028AFD100F0ECF8FEE7236883B1002361
:104C10000593CDF818B00796FFF7D4FD344900226C
:104C20000868134605A9FDF75FFF00287FF47AAFF7
:104C300000F0D6F8FEE7DAF81830CAF810A009EB51
:104C400003029742CAF8042005D2284A5946106840
:104C5000FDF70EFEBFE7C9EB0707BB424ED823683E
:104C60007BB10596CDF81890CDF81CA0FFF7AAFDF2
:104C70001F4932460868334605A9FDF735FF00286D
:104C8000A9D100F0ADF8FEE7039BB9693F61CA18EE
:104C90004A457A6038D8C3EB090399423DD87B6A0C
:104CA00038469847FB69012B7FF4FFAEBA69039B36
:104CB00000211A44009138460B46FFF79FFE00285A
:104CC0007FF4F3AE00F08CF8FEE7039BBB6153B3B7
:104CD0004B444B4598BF084A7B603F6107F1040194
:104CE00094BF10682868FDF7C3FDDEE60C030020C2
:104CF0003C03002038030020400300200B4B5946A2
:104D00001868FDF7B5FD66E74B4501D99342C6D952
:104D1000391D2868FDF7ACFDC7E6044B391D18683E
:104D2000FDF7A6FDC1E600F05BF8FEE740030020BA
:104D300010B5044600F076F86469003418BF012409
:104D400000F082F8204610BD006A704705480068F0
:104D5000006880F3088862B6BFF34F8FBFF36F8F90
:104D600000DF00BF08ED00E0DFF80C00016841F44F
:104D7000700101607047000088ED00E010B4094B3D
:104D800040F8081C4FF080746FF0020140F8044CAA
:104D900040F8202C40F80C3C40F8241C5DF8044BF3
:104DA00044387047F14D0008064B19680868B0E8B0
:104DB000F04F80F30988BFF36F8F4FF0000080F34E
:104DC000118870479C020020044B4FF080521A60FB
:104DD000BFF34F8FBFF36F8F704700BF04ED00E04C
:104DE000EFF311804FF0500181F3118870470020DC
:104DF00008B5054B1B68013302D0FFF7F1FFFEE752
:104E0000FFF7EEFFFEE700BF1800002008B5044BD7
:104E10001B68B3F57A7F02D0FFF7E2FFFEE708BD1B
:104E20001800002008B5FFF7DBFF044B1A680132B9
:104E30001A60BFF34F8FBFF36F8F08BD18000020BB
:104E400080F31188704700BF08B5074B186818B188
:104E50000138186018B108BDFFF7C2FFFEE7BDE8D2
:104E60000840FFF7EDBF00BF18000020EFF30980F6
:104E7000BFF36F8F124B1A681EF0100F08BF20EDA2
:104E8000108A20E9F04F10604DF8043D4FF05000BB
:104E900080F31188FFF7B8FA4FF0000080F3118813
:104EA00008BC19680868B0E8F04F1EF0100F08BF82
:104EB000B0EC108A80F30988BFF36F8F704700BF92
:104EC0009C02002008B5FFF78BFFFEF7DBFE18B150
:104ED000044B4FF080521A600020BDE80840FFF7F5
:104EE000AFBF00BF04ED00E0074B084A186808494F
:104EF000084B10B4A2FB004080090138072208606B
:104F00005DF8044B1A60704710000020D34D62100A
:104F100014E000E010E000E010B5244B24491C78B8
:104F2000244882B0E4B2FF2201941A701B78DBB2ED
:104F30008DF803309DF803409DF8032004F05004E1
:104F400007230C70110603600ED5062300E00B4604
:104F50009DF803205200D2B28DF803209DF8032063
:104F6000120603F1FF31F2D4019C1049124A1B02D0
:104F700003F4E063E4B203600C70136843F470035D
:104F80001360136843F070431360FFF7ADFF0B4BE2
:104F900000221A60FFF7E8FE094B1A6842F040420F
:104FA0001A60FFF7D3FEFFF723FF00BF00E400E025
:104FB000440300204803002020ED00E018000020FA
:104FC00034EF00E008B5EFF305830F2B05D90A494C
:104FD0000A4A5B5C12789A420BD8094A094B12685C
:104FE0001B6802F4E0629A4200D808BDFFF7F8FEA1
:104FF000FEE7FFF7F5FEFEE7F0E300E044030020E4
:105000000CED00E04803002038B5430704461CBF00
:1050100020F007040834FEF70DFE0E4A13689BB11A
:105020001D460D4A0D4913681C448C4207D8A34203
:1050300005D21D441460FEF7C7FE284638BD002582
:10504000FEF7C2FE284638BD054D25F00705156060
:10505000E7E700BF502F01204C030020F72B010091
:105060005803002008B510B1FFF7BAFEFEE708BDEF
:10507000014B00221A6070474C030020034B186854
:10508000C0F5953000F5FC70704700BF4C03002060
:1050900040F0BF60024B40F40030D860704700BF62
:1050A00000ED00E0C378F0B463B90378194A5909F8
:1050B000203103F01F03012000FA03F342F82130EE
:1050C000F0BC7047144B4778DA688578037811494B
:1050D000D243C2F30222C2F104040F26E4B207FA5B
:1050E00004F446FA02F2E4B22A40224303F1604398
:1050F00003F561431201D2B283F800230378012043
:1051000003F01F025B0900FA02F241F82320F0BC11
:10511000704700BF00E100E000ED00E021F06041D9
:1051200021F07F01014B08439860704700ED00E0DB
:10513000044B1A6919B922EA00001861704710433C
:105140001861704700ED00E0044B1A6804280CBF9A
:1051500042F0040222F004021A60704710E000E0FE
:1051600008B54B4B98422AD04A4B984231D04A4B13
:10517000984238D0494B98423FD0494B984246D04C
:10518000484B98424DD0484B984254D0474B984298
:105190005BD0474B984262D0464B98426BD0464B0F
:1051A000984200D008BD4FF48060012100F022FB3E
:1051B0004FF480600021BDE8084000F01BBB0120D7
:1051C000014600F017FB01200021BDE8084000F077
:1051D00011BB0220012100F00DFB02200021BDE8DF
:1051E000084000F007BB0420012100F003FB04206D
:1051F0000021BDE8084000F0FDBA0820012100F0C0
:10520000F9FA08200021BDE8084000F0F3BA1020A8
:10521000012100F0EFFA10200021BDE8084000F065
:10522000E9BA2020012100F0E5FA20200021BDE8A4
:10523000084000F0DFBA4020012100F0DBFA4020F6
:105240000021BDE8084000F0D5BA8020012100F01F
:10525000D1FA80200021BDE8084000F0CBBA4FF41D
:105260008070012100F0C6FA4FF480700021BDE883
:10527000084000F0BFBA4FF40070012100F0BAFA04
:105280004FF400700021BDE8084000F0B3BA00BF41
:10529000000002400004024000080240000C0240EE
:1052A000001002400014024000180240001C02409E
:1052B00000200240002402400028024000222DE984
:1052C000F00713460E6801274FF0030804E001338E
:1052D000102B02F102022CD007FA03F404EA0605AF
:1052E000A542F4D1D0F8009091F804C008FA02F475
:1052F000E44304EA0909C0F80090D0F800900CFAE1
:1053000002FA0CF1FF3C4AEA0909BCF1010FC0F8AE
:10531000009011D9C56891F807C02C40C460C568D9
:105320000CFA02F401332C43102BC46002F1020288
:10533000D2D1BDE8F0077047D0F808A091F80590E9
:1053400091F806C004EA0A0AC0F808A0D0F808A03C
:1053500009FA02F949EA0A09C0F80890D0F804905D
:1053600029EA0505456045680CFA03FC1FFA8CFC28
:105370004CEA05054560CDE700234FF6FF72026059
:10538000037143718371C371704700BF82B04FF4E2
:1053900080330193019B0B430193019BC361C16166
:1053A000019BC361C3690193C369019302B0704754
:1053B000036919420CBF002001207047006980B2C8
:1053C000704700BF436919420CBF0020012070479D
:1053D000406980B2704700BF0183704741837047C6
:1053E0000AB9418370470183704700BF416170472C
:1053F0004369594041617047CB0800EB830001F0DD
:10540000070110B48900046A0F238B4024EA0303C8
:105410000362036A5DF8044B8A40134303627047DA
:105420000F4B10481968002241F0010130B4196097
:105430009A6019680C4D0D4C21F0A85121F41021EF
:1054400019605D60C3F88440C3F88800196821F4CE
:105450008021196030BCDA60C3F88C20704700BF2F
:1054600000380240003000241030002400300020BA
:10547000024B00221A701870704700BF02380240B9
:1054800082B000230B4A019313689B030CD4019B49
:1054900001330193019BB3F5A04FF5D1054B18687B
:1054A000C0F3404002B07047019B01330193019B60
:1054B000F4E700BF00380240034B1A6822F0F802FC
:1054C00042EAC0001860704700380240014B186083
:1054D000704700BF00004742064B002201281A70A7
:1054E0001A7005D0042802D105221A70704770473F
:1054F0001870704770380240014B1860704700BF49
:10550000800E474230B4029C064D40EA04605B08BE
:105510000143013B41EA821242EA03436B6030BC23
:10552000704700BF00380240014B1860704700BF51
:1055300060004742120742EA0161034B41EA8010D2
:10554000C3F88400704700BF00380240014B186068
:10555000704700BF68004742120742EA0161034BEF
:1055600041EA8010C3F88800704700BF003802404D
:10557000014B1860704700BF70004742014B186034
:10558000704700BF4C004742034B9A6822F0EC6220
:10559000114308439860704700380240034B9A68F3
:1055A00022F0784211430843986070470038024067
:1055B000034B9A6822F0030210439860704700BFC3
:1055C00000380240024B986800F00C00704700BFA2
:1055D00000380240034B9A6822F0F00210439860B2
:1055E000704700BF00380240034B9A6822F4E05233
:1055F00010439860704700BF00380240034B9A6820
:1056000022F4604242EAC0009860704700380240CD
:105610001F4A936803F00C03042B10B41BD0082B13
:105620001CD01C4B03601A491B4A8C68C4F303143A
:10563000145DE34043608C68C4F38224145D23FA54
:1056400004F4846089685DF8044BC1F34231525C14
:10565000D340C3607047114B0360E4E7546851685E
:10566000526863024CBF0D4B0A4B01F03F01C2F37D
:105670008812B3FBF1F303FB02F3054A5268C2F34D
:10568000014201325200B3FBF2F30360CBE700BFEB
:10569000003802400024F4001C00002000127A00B0
:1056A00000F44073B3F5407F09D1084A916820F0B7
:1056B000704321F4F81123F440730B439360034BC0
:1056C0001A6FC0F30B001043186770470038024090
:1056D000014B1860704700BF3C0E4742014B1860F9
:1056E000704700BF400E4742014B1860704700BF33
:1056F0005C014742044BD3F88C20013822F01F0292
:105700000243C3F88C20704700380240054BD3F8A1
:105710008C20013822F4F85242EA0022C3F88C208F
:10572000704700BF00380240044BD3F88C2022F4AD
:1057300040121043C3F88C00704700BF003802408D
:10574000044BD3F88C2022F440021043C3F88C00A1
:10575000704700BF00380240044BD3F88C2022F47D
:1057600040321043C3F88C00704700BF003802403D
:10577000014B1860704700BFE0114742044B1A6BA1
:1057800019B922EA00001863704710431863704784
:1057900000380240044B5A6B19B922EA00005863E2
:1057A000704710435863704700380240044B9A6BAF
:1057B00019B922EA00009863704710439863704754
:1057C00000380240044B1A6C19B922EA0000186430
:1057D000704710431864704700380240044B5A6CFD
:1057E00019B922EA000058647047104358647047A2
:1057F00000380240044B1A6919B922EA0000186106
:10580000704710431861704700380240044B5A69D2
:1058100019B922EA00005861704710435861704777
:1058200000380240044B9A6919B922EA00009861D5
:10583000704710439861704700380240044B1A6A61
:1058400019B922EA000018627047104318627047C5
:1058500000380240044B5A6A19B922EA0000586223
:10586000704710435862704700380240044B1A6D6D
:1058700019B922EA0000186570471043186570478F
:1058800000380240044B5A6D19B922EA00005865ED
:10589000704710435865704700380240044B9A6DBA
:1058A00019B922EA0000986570471043986570475F
:1058B00000380240044B1A6E19B922EA000018663B
:1058C000704710431866704700380240044B5A6E08
:1058D00019B922EA000058667047104358667047AD
:1058E00000380240044B1A7819B922EA00001870F7
:1058F00070471043187070470D3802404309012B60
:105900000BD0022B094B0CBF1B6F5B6F00F01F000D
:1059100023FA00F000F001007047044B1B6800F010
:105920001F0023FA00F000F0010070470038024029
:10593000024B5A6F42F080725A677047003802403B
:10594000034BDB6818420CBF00200120704700BFEA
:1059500000380240014B1870704700BF0E380240FB
:1059600008B53A4B984221D0394B984228D0394B50
:10597000984231D0384B98423AD0384B984243D075
:10598000374B98424CD0374B984253D0364B9842C5
:1059900000D008BD4FF000400121FFF74FFF4FF04E
:1059A00000400021BDE80840FFF748BF102001215A
:1059B000FFF750FF10200021BDE80840FFF74ABF65
:1059C0004FF400300121FFF739FF4FF40030002180
:1059D000BDE80840FFF732BF4FF480200121FFF7F8
:1059E0002DFF4FF480200021BDE80840FFF726BFBF
:1059F0004FF400200121FFF721FF4FF40020002188
:105A0000BDE80840FFF71ABF4FF480100121FFF7EF
:105A100015FF4FF480100021BDE80840FFF70EBFCE
:105A200020200121FFF716FF20200021BDE80840BB
:105A3000FFF710BF4FF080400121FFF7FFFE4FF04E
:105A400080400021BDE80840FFF7F8BE001001408B
:105A50000044004000480040004C0040005000401E
:105A60000014014000780040007C0040F0B50D4675
:105A7000018AEF882E89AB88AA8989B2044621F46D
:105A80004051394368892182A189334389B2034354
:105A900021F4B05121F00C019BB20B43A381A38AE6
:105AA0009BB223F44073134385B0A3826846FFF78B
:105AB000AFFD1D4B9C4229D003F580639C4225D04D
:105AC000029BA2892968A08912B2002A03EB8303F2
:105AD000B4BF4900890003EB8303B3FBF1F2134920
